S3850000C0000070002011C4000079C4000079C4000079C4000079C4000079C400000000000000000000000000000000000079C4000079C400000000000079C400000522010003EE00000DEE000017EE000021EE00002BEE000035EE00003FEE000049EE000053EE00005DEE000067EE000071EE00007BEE000085EE00008FEE000099EE000085
S3850000C080A3EE000079C4000079C4000079C4000079C4000079C4000079C4000079C4000079C4000079C4000079C4000079C4000079C4000079C4000079C4000079C4000079C4000079C4000079C4000079C4000079C4000079C4000079C4000079C4000079C4000079C4000079C4000079C4000079C4000079C4000079C4000079C4000046
S3850000C10079C4000079C4000079C4000079C4000079C4000079C4000079C4000079C4000079C4000079C40000D522010079C4000079C4000079C4000079C4000079C4000079C4000079C4000079C4000079C4000079C4000079C4000079C4000079C4000079C4000079C4000079C4000079C4000079C4000079C400007D01010087010100D0
S3850000C180910101009B010100A501010079C4000079C40000AF010100B901010079C40000C301010079C4000079C4000079C40000CD010100D701010079C40000E101010079C4000079C4000079C4000079C4000079C4000079C4000079C4000079C4000079C4000079C4000079C4000079C4000079C4000079C4000079C4000079C400002B
S3850000C20079C4000079C4000079C4000079C4000079C4000079C4000079C4000079C4000079C4000079C4000079C4000079C4000079C4000079C4000079C4000079C4000079C4000079C4000079C4000079C4000079C4000079C4000079C4000079C4000079C4000079C4000079C4000079C4000079C4000079C4000079C4000079C4000018
S3850000C28079C4000079C4000079C4000079C4000079C4000079C4000079C4000079C4000079C4000079C4000079C4000079C4000079C4000079C4000079C4000079C4000079C4000079C4000079C4000079C4000079C4000079C4000079C4000079C4000079C4000079C4000079C4000079C4000079C4000079C4000079C4000079C4000098
S3850000C30079C4000079C4000079C4000079C4000079C4000079C4000079C4000079C4000079C4000079C4000079C4000079C4000079C4000079C4000079C4000079C4000079C4000079C4000079C4000079C4000079C4000079C4000079C4000079C4000079C4000079C4000079C4000079C4000079C4000079C4000079C4000079C4000017
S3850000C38079C4000079C4000079C4000079C4000079C4000079C4000079C4000079C4000079C4000079C4000079C4000079C4000079C4000079C4000079C4000079C4000079C4000079C4000079C4000079C4000079C4000079C4000079C4000079C4000079C4000079C4000079C4000079C4000079C4000079C4000079C40000FFFFFFFFD8
S3850000C400FFFFFFFFFFFFFFFFFFFFFFFFFE7FFFFF72B64FF000014FF000024FF000034FF000044FF000054FF000064FF00007B846B946BA46BB46BC460A490B4A521A013A05DD0020042308601944043AFBDA07488546074880470748804762B606F05EFFFEE700000080FF1F0070002000700020DDCD000015CE0000FFF7FEBF80F00040B6
S3850000C48002E000BF81F0004142001FBF5FEA410392EA030F7FEA226C7FEA236C6AD04FEA1262D2EB1363C1BFD218414048404140B8BF5B42192B88BF704710F0004F40F4000020F07F4018BF404211F0004F41F4000121F07F4118BF494292EA030F3FD0A2F1010241FA03FC10EB0C00C3F1200301FA03F100F0004302D5494260EB400097
S3850000C500B0F5000F13D3B0F1807F06D340084FEA310102F10102FE2A51D2B1F1004F40EBC25008BF20F0010040EA03007047490040EB000010F4000FA2F10102EDD1B0FA80FCACF1080CB2EB0C0200FA0CF0AABF00EBC25052421843BCBFD0401843704792F0000F81F4000106BF80F400000132013BB5E74FEA41037FEA226C18BF7FEA80
S3850000C580236C21D092EA030F04D092F0000F08BF0846704790EA010F1CBF0020704712F07F4F04D1400028BF40F00040704712F100723CBF00F50000704700F0004343F0FE4040F4000070477FEA226216BF08467FEA23630146420206BF5FEA412390EA010F40F4800070474FF0000304E000BF10F0004348BF40425FEA000C08BF7047A7
S3850000C60043F0964301464FF000001CE050EA010208BF70474FF000030AE000BF50EA010208BF704711F0004302D5404261EB41015FEA010C02BF84460146002043F0B64308BFA3F18053A3F50003BCFA8CF2083AA3EBC25310DB01FA02FC634400FA02FCC2F12002BCF1004F20FA02F243EB020008BF20F00100704702F1200201FA02FC15
S3850000C680C2F1200250EA4C0021FA02F243EB020008BF20EADC7070474FF0FF0C1CEAD0521EBF1CEAD15392EA0C0F93EA0C0F6FD01A4480EA010C400218BF5FEA41211ED04FF0006343EA501043EA5111A0FB01310CF00040B1F5000F3EBF490041EAD3715B0040EA010062F17F02FD2A1DD8B3F1004F40EBC25008BF20F00100704790F072
S3850000C700000F0CF0004C08BF49024CEA502040EA51207F3AC2BFD2F1FF0340EAC250704740F400004FF00003013A5DDC12F1190FDCBF00F000407047C2F10002410021FA02F1C2F1200200FA02FC5FEA310040F1000053EA4C0308BF20EADC70704792F0000F00F0004C02BF400010F4000F013AF9D040EA0C0093F0000F01F0004C02BFF9
S3850000C780490011F4000F013BF9D041EA0C018FE70CEAD15392EA0C0F18BF93EA0C0F0AD030F0004C18BF31F0004CD8D180EA010000F00040704790F0000F17BF90F0004F084691F0000F91F0004F14D092EA0C0F01D142020FD193EA0C0F03D14B0218BF084608D180EA010000F0004040F0FE4040F40000704740F0FE4040F440007047E7
S3850000C8004FF0FF0C1CEAD0521EBF1CEAD15392EA0C0F93EA0C0F69D0A2EB030280EA010C49024FEA402037D04FF0805343EA111143EA10130CF000408B4238BF5B0042F17D024FF4000C8B4224BF5B1A40EA0C00B3EB510F24BFA3EB510340EA5C00B3EB910F24BFA3EB910340EA9C00B3EBD10F24BFA3EBD10340EADC001B0118BF5FEA1E
S3850000C8801C1CE0D1FD2A3FF650AF8B4240EBC25008BF20F0010070470CF0004C4CEA50207F32C2BFD2F1FF0340EAC250704740F400004FF00003013A37E792F0000F00F0004C02BF400010F4000F013AF9D040EA0C0093F0000F01F0004C02BF490011F4000F013BF9D041EA0C0195E70CEAD15392EA0C0F08D142027FF47DAF93EA0C0FE8
S3850000C9007FF470AF084676E793EA0C0F04D14B023FF44CAF08466EE730F0004C18BF31F0004CCAD130F000427FF45CAF31F000437FF43CAF5FE700BF4FF0FF3C06E000BF4FF0010C02E000BF4FF0010C4DF804CD4FEA40024FEA41037FEA226C18BF7FEA236C11D001B052EA530C18BF90EA010F58BFB2EB030088BFC81738BF6FEAE170BF
S3850000C98018BF40F0010070477FEA226C02D15FEA402C05D17FEA236CE4D15FEA412CE1D05DF8040B704700BF844608466146FFE70FB5FFF7C9FF002848BF10F1000F0FBD4DF808EDFFF7F4FF0CBF012000205DF808FB00BF4DF808EDFFF7EAFF34BF012000205DF808FB00BF4DF808EDFFF7E0FF94BF012000205DF808FB00BF4DF808ED5F
S3850000CA00FFF7D2FF94BF012000205DF808FB00BF4DF808EDFFF7C8FF34BF012000205DF808FB00BF4FEA4002B2F1FE4F0FD34FF09E03B3EB12620DD94FEA002343F0004310F0004F23FA02F018BF404270474FF00000704712F1610F01D1420205D110F0004008BF6FF0004070474FF00000704742000ED2B2F1FE4F0BD34FF09E03B3EB81
S3850000CA80126209D44FEA002343F0004323FA02F070474FF00000704712F1610F01D1420202D14FF0FF3070474FF00000704700BF53B94AB9002908BF00281CBF4FF0FF314FF0FF3000F07EB9ADF1080C6DE904CE00F006F8DDF804E0DDE9022304B070472DE9F047089D04468E46002B4ED18A4294466DD9B2FA82F757B1C7F1200EB940EC
S3850000CB0020FA0EFE02FA07FC4EEA010E00FA07F44FEA1C49210CBEFBF9F61FFA8CF809FB16EE41EA0E4106FB08F38B420AD91CEB010106F1FF3280F027818B4240F22481023E6144C91AA4B2B1FBF9F009FB101144EA014400FB08F8A0450AD91CEB040400F1FF3380F00E81A04540F20B810238644440EA0640A4EB080400267DB1FC40C4
S3850000CB8000232C606B603146BDE8F0878B4209D9002D00F01481002685E8030030463146BDE8F087B3FA83F6002E40F090808B4202D3824200F2FD80841A61EB030101208E46002DEBD085E810403146BDE8F0871AB94FF0010CBCFBF2FCBCFA8CF7A7BBA1EB0C034FEA1C421FFA8CF80126B3FBF2FE210C02FB1E3341EA034108FB0EF3BD
S3850000CC008B4208D91CEB01010EF1FF3002D28B4200F2D1808646C91AA3B2B1FBF2F002FB101143EA014408FB00F8A04508D91CEB040400F1FF3302D2A04500F2B7801846A4EB080440EA0E4098E7C7F1200301FA07F40CFA07FC20FA03FED9404FEA1C424EEA040EB1FBF2F64FEA1E4302FB16111FFA8CF843EA014306FB08F1994200FAE0
S3850000CC8007F40AD91CEB030306F1FF3080F08C80994240F28980023E63445B1A1FFA8EF1B3FBF2F002FB103341EA034100FB08F38B4208D91CEB010100F1FF3E70D28B426ED902386144CB1A40EA06468FE7C6F1200722FA07F8B34001FA06F448EA030320FA07FC4FEA134EF9404CEA040CB1FBFEF94FEA1C440EFB19111FFA83F844EAF7
S3850000CD00014109FB08F48C4202FA06F200FA06FA08D9591809F1FF3044D28C4242D9A9F102091944091B1FFA8CFCB1FBFEF00EFB10114CEA014400FB08F8A04507D91C1900F1FF312AD2A04528D902381C4440EA0940A4EB0804A0FB02894C45C446494616D313D055B1BAEB0C0364EB010404FA07F7F3401F43F4402F606C6000263146A8
S3850000CD80BDE8F0871846F4E61646DBE6C245E9D2B8EB020C69EB03010138E3E70846D6E7704690E78146BDE7064676E70238644446E7304605E7AEF1020E61442BE72E462846ECE6704700BF10F8012B11F8013B012A28BF9A42F7D0D01A7047054B064A5A605A6842F220121A604FF6FF729A60704700BF0020054020C528D94FF0E02125
S3850000CE00D1F80C2D92B2024B1343C1F80C3D70470400FA05254B264A9A4208D013462348244A13F8011B02F8011B9842F9D1224B224A9A4208D013461F48214A13F8011B02F8011B8342F9D11E4B1F4A9A4206D0134600211B4A03F8011B9342FBD11B4B1B4A9A4208D0134618481A4A13F8011B02F8011B8342F9D1174B184A9A4211D0D8
S3850000CE8010B4174CA40808D01946002351F8040B42F8040B0133A342F8D1124B0F4A1A6010BC70470F4B0C4A1A607047FC3F0100D83801000084FF1F34400100FC3F0100248BFF1F840300200000002034400100344001000000002000C000000080FF1F0004000008ED00E0012801D900BEFEE709B900BEFEE7CB780BB100BEFEE770B5A1
S3850000CF0084B00C4606465F4B53F8205041238DF80C3042238DF80D3004A9002341F8083D04AB034413F8040C01F0A6FC08B100BEFEE72178029BCB400293A3F5F413A3F59063514A93428CBF002301231A460BB900BEFEE7286C20F060004B0103F0600303432B646378002B08BF0123696C21F0FF010B436B64296C21F00C01A3789B0039
S3850000CF8003F00C030B432B64296C21F00301E37803F003030B432B64D5F8901021F0400123799B0103F040030B43C5F890306379302100914FF4405101913449896904A800EB860050F8100C21EA00011EB1012E3AD000BEFEE71B0103F030030B432B488361A179836923F0010301F001010B4326498B61D5F8903023F00403E1790029E4
S3850000D00014BF042100210B43C5F89030D5F8901021F00301237A03F003030B43C5F89030D5F8943023F00803617A002914BF082100210B43C5F89430A37A13B1B6FA86F2520982B900BEFEE71B0303F440530B430E488361A179836923F48073090201F480710B43C4E72EB933B1084A536843F40023536004B070BD044A536823F40023CF
S3850000D0805360F7E7E0350100006CDC0200800440012801D900BEFEE70F2901D900BEFEE70AB900BEFEE730B41D4B53F8204038B15388A3F570639BB2052B2DD800BEFEE753881578A3F5706292B2052A14D8A3F57063144A526812F4002F01D100BEFEE7104A506820F4E020506050681B0403F4E02303435360152354F8212003F01F0391
S3850000D10022F05F021343002D14BF40220022134344F8213030BC704753881578ECE700BFE035010000800440012801D900BEFEE70F2901D900BEFEE7034B53F8203053F82100C0F3C0107047E0350100012801D900BEFEE70AB900BEFEE7074B53F820300F2901D900BEFEE7123153F82130C3F30B031380704700BFE0350100012801D98F
S3850000D18000BEFEE72DE9F04782B00246524B53F82040D4F89430C3F38008D4F8947007F00307D4F89060656CEDB2D4F8943043F00303C4F89430D4F8943043F00403C4F89430D4F8903023F04003C4F89030636C23F0FF0343F00C0363640023C4F8B430C4F8B830C4F8BC30C4F8C030C4F8C430C4F8C830C4F8CC3041218DF80410422199
S3850000D2008DF8051002A941F8083DD4F84090C9F3411A02AB1A4412F8040C01F02DFB08B100BEFEE7009B2D4A934201D800BEFEE723FA0AFA2A4A924511D92A4A934207D9294A934243D9294A934242D900BEFEE70122236C23F0600343EA42132364D4F8943043F08003C4F89430D4F8943013F08003FAD1216C21F0600109F060020A43CD
S3850000D2802264D4F8942022F00402B8F1000F18BF04231343C4F89430D4F8943023F003031F43C4F89470D4F8902022F0400206F040031343C4F89030002D08BF0125636C23F0FF031D43656402B0BDE8F0870222BFE70322BDE700BFE03501007F841E0040787D0181F0FA0203E1F50507C2EB0B074B5B69DBB2042B06D0802B06D0012BC5
S3850000D3000CBF012004207047022070470320704700E00740044BD3F8003113F0807F1ABF024B186800207047004006402000002010B584B00B46002938D0444AD2F8002112F0007F7DD1414AD2F8001121F40001C2F800114FF08061C2F8001100213C4A1160002870D05A7A120202F4E062197A01F007010A433548C0F80421DA79120148
S3850000D38002F030029979C90001F008010A435979890001F004010A43C0F808211A79012A2FD0CAB1022A38D000BEFEE700238DF804308DF80C3001228DF808208DF809208DF805208DF8063002238DF8073004AB204A43F8102DB0E71A7B002A14BF4FF40002002242F001021849C1F800211A68174B1A60184CFFF78DFFE8B9D4B1013CBA
S3850000D400F9E71A7B002A14BF4FF40002002242F001120E49C1F80021E9E71A7B002A14BF4FF403024FF4403242F001020749C1F80021DCE7032005E0002C14BF0020032000E0022004B010BD0020FBE7004006402000002000127A0088E73000084BD3F8003213F0807F09D0054BD3F8083203F00103002B034808BF0020704700207047B4
S3850000D4800040064000127A0010B582B00B46002938D02D4AD2F8002212F0007F4FD12A4AD2F8001221F40001C2F800120021C2F80012002846D09A78120202F4E062597801F007010A432049C1F804221A7802F00102C1F8082259799A791B79002B14BF03230123002914BF042100210B43002A14BF4FF4000200221343134AC2F80032BF
S3850000D500642410E000238DF8043001228DF805208DF806308DF801208DF8022002AB03F8082DB6E7013CFFF799FF18B9002CF9D1032005E0002C14BF0020032000E0022002B010BD0020FBE700400640054BD3F8003313F0807F1DBF024BD3F8083302480020704700400640006CDC0210B582B00B46002932D0294AD2F8002312F0007F59
S3850000D58047D1264AD2F8001321F40001C2F800134FF08061C2F8001300283DD09A78120202F4E062597801F007010A431B49C1F804231A7802F00302C1F808239A795B79002B14BF01230923002A14BF4FF4000200221343C1F8003364240EE001238DF8053000228DF806208DF801308DF8023002AB03F8082DBEE7013CFFF7A7FF18B900
S3850000D600002CF9D1032005E0002C14BF0020032000E0022002B010BD0020FBE70040064008B50F4BD3F8003613F0807F02D10023184608BDFFF76EFE03460028F8D00849D1F80826C2F302220132B0FBF2F3D1F80826C2F30442103203FB02F35B08E7E70040064010B584B00C4689B900238DF804308DF80B3001228DF808208DF8092024
S3850000D6808DF8053007228DF806208DF8073001AC3D4BD3F8003613F0007F71D13A4BD3F8002622F40002C3F800264FF08062C3F80026002866D0FFF72DFE034608B900BEFEE760780130B3FBF0F0A0F5F400A0F590502E4B984201D900BEFEE763791B0203F4E063227902F0070213432649C1F8043663781B0203F4E063A278120402F405
S3850000D700F8121343C1F808362378012B18D01BB1022B21D000BEFEE7E379002B14BF4FF40003002343F00103174AC2F800364FF47A74FFF775FFF0B9DCB9032004B010BDE379002B14BF4FF40003002343F001130D4AC2F80036EAE7E379002B14BF4FF403034FF4403343F00103074AC2F80036DDE7013CDDE7002C14BF00200320DDE78A
S3850000D7800220DBE70020D9E70040064000366E012DE9F84391F802904E780D780746003018BF012008B900BEFEE780460C46CB78022B50D003D8012B08D0002008E0032B4CD0062BF9D1FFF72BFF01E0FFF7A2FD09F1010206FB022605FB02250309022F3FD0032F73D0012F40F0B080E1780C2000FB01F0644F3858000902FB00F293421B
S3850000D80000F2A6800C2202FB01725268120906FB02F6B34200F29F800C2202FB01729268120905FB02F5AB4200F29880A3781B0403F47023090601F070610B43227802F00F02134362781201D2B213434F4A53610020BDE8F883FFF701FEB9E7FFF776FEB6E7E178022901D000BEFEE70C2000FB01F0474F3858000902FB00F2934270D866
S3850000D8800C2202FB01725268120906FB02F6B3426AD80C2202FB01729268120905FB02F5AB4264D8A3781B0403F47023090601F070610B43227802F00F02134362781201D2B21343314A93610020BDE8F883E178032905D0062914BF4FF000084FF00108B8F1000F01D100BEFEE70C2000FB01F0284F3858000902FB00F293423AD80C221C
S3850000D90002FB01725268120906FB02F6B34234D80C2202FB01729268120905FB02F5AB422ED8A3781B0403F47023090601F070610B43227802F00F02134362781201D2B21343124AD3610020BDE8F88300BEFEE70120BDE8F8830120BDE8F8830120BDE8F8830120BDE8F8830120BDE8F8830120BDE8F8830120BDE8F8830120BDE8F883AD
S3850000D9800120BDE8F88300BFDC36010000400640303701008836010008B900BEFEE710B50446C378FF2B01D100BEFEE7FFF7A0FC042801D100BEFEE72146FFF7E9FE034658B9E4780A220848013A0169C1F303618C4204D0002AF7D10323184610BD002A08BF0323F9E700BF00400640022801D900BEFEE710B504461B4B1B69C3F30363D1
S3850000DA00022B1BD006D9032B1BD0062B04D1FFF707FE05E0012B01D0002001E0FFF77AFC114B1B69C3F303430133B0FBF3F0012C0AD0C4B1022C0FD0002010BDFFF70EFDEEE7FFF783FDEBE7074B1B69C3F303130133B0FBF3F010BD034B1B6903F00F030133B0FBF3F010BD0040064008B5104B1B6AC3F30363022B11D005D85BB1012B15
S3850000DA8013D1FFF747FC08BD032B0BD0062B0CD1FFF7C6FD08BD0220FFF7A8FF08BDFFF7DDFC08BDFFF752FD08BD002008BD00BF0040064008B519B1012931D000BEFEE7052816D009D8042828D1FFF7C7FC2A4BD3F8043203F0070312E0062816D007281CD1FFF79DFD244BD3F8043603F0070306E0FFF72BFD204BD3F8043303F0070332
S3850000DB0013B1013B20FA03F3184608BDFFF702FC194BD3F8043103F00703F1E700BEFEE7052816D009D8042823D1FFF797FC124BD3F80432C3F30223E2E7062811D0072817D1FFF76DFD0C4BD3F80436C3F30223D6E7FFF7FBFC084BD3F80433C3F30223CEE7FFF7D7FB044BD3F80431C3F30223C6E700BEFEE700BF0040064008B5114B11
S3850000DB801B69C3F30113012B0BD02BB1022B11D0032B12D0002008BD00210620FFF78AFF08BD084B186900F00200002818BF4FF4FA4008BD044B186808BD00210520FFF779FF08BD0080044000000020134B1B69C3F38103012B06D0EBB1022B05D0032B0CD000BEFEE7002070470C4B186900F00200002818BF4FF4FA407047074B186958
S3850000DC0010F0020009D0186900F00100002818BF4FF47A7070474FF4FA3070470080044008B5294B5B6813F4006F4AD0264B5B68C3F30313072B35D00AD90A2B3ED017D8082B33D0092B1AD10120FFF7CFFE17E0022B1DD008D9042B1FD0062B0FD101210520FFF727FF0BE04BB9FFF7FFFE07E00C2B20D00E2B02D1FFF780FF00E0002088
S3850000DC80114B5B68C3F302230133B0FBF3F008BD01210620FFF70EFFF2E701210420FFF709FFEDE70020FFF7A1FEE9E701210720FFF700FFE4E7FFF789FFE1E74FF4FA30DEE7002008BD00BF0080044010B50C461C286FD022D8182855D010D816283ED047D8152840F0A7805F4BDB68C3F30163022B00F2AB805D4A52F8233005E01A2857
S3850000DD004AD04DD8FFF78CFF03460020002B00F09580002C00F0A680236010BD20286FD010D81E2858D060D8514B9B78DB0940F097804D4B1B6903F00203002B18BF4FF4FA43E2E722286DD063D3232873D1464B1B6C13F001034DD14FF48070D9E7424BDB68C3F38163022B72D8404A52F82330CBE73D4BDB68C3F30173022B6AD83B4A45
S3850000DD8052F82330C1E7384BDB689B0F022B63D8364A52F82330B8E7FFF7F0FE0346B4E7334B9B78DB0901D00023AEE7FFF70EFF0346AAE72E4B9B78DB094FD12A4B1B6913F00203A1D0284B1B6903F00103002B18BF4FF47A7398E7254B9B78DB09002B14BF00234FF4FA338FE71F4B1B6CC3F3001343B30120FFF7F9FD0346002085E700
S3850000DE00194B1B6CC3F3C003002BF3D14FF480707FE7154B1B6CC3F38003002BEAD14FF4807076E7104B1B6CC3F34003002BE1D14FF480706DE70420002367E7042818BF4FF4807065E74FF4807062E700235CE700235AE7002358E7002356E7002354E7002352E710BD00BF008004400400002000D0074030B583B0002301932F4B33F803
S3850000DE8010309B0003F1804303F5CA231D68C5F3C0051C6804F00704AC4226D31A6812F0804F22D01B68C3F30263022B20D008D8012B0FD03D2835D024D83C282CD000240CE0032B19D0062BF4D10720FFF7F2FD019003E00620FFF7EDFD01900134019BB3FBF4F405FB04440194019803B030BD0420FFF7DFFD0190F0E70520FFF7DAFD87
S3850000DF000190EBE73E2813D03F28D8D101A91820FFF7DCFE0024E1E701A91520FFF7D6FE0024DBE701A91620FFF7D0FE0024D5E701A91720FFF7CAFE0024CFE7E8350100F0B5A5B00446FFF7D3F9012801D000BEFEE72CB12646002C40F0718100BEFEE701238DF80B3000228DF80C208DF80D308DF80E208DF808308DF809308DF80A3054
S3850000DF808DF816308DF814308DF815208DF80F208DF810308DF811308DF838300D928DF82530BA4906918DF81C208DF824208DF81D308DF81E2002208DF81F008DF820308DF821308DF830308DF828208DF82F208DF829200C218DF82A108DF82B208DF82C308DF82D308DF83D3003218DF83C108DF84B308DF841108DF840208DF83F3095
S3850000E0008DF83E308DF845008DF844308DF843208DF8421006208DF849008DF848208DF847308DF846109A492291202121918DF84C308DF84D208DF84E208DF84F208DF850308DF854308DF853308DF852208DF851208DF878308DF879308DF87A308DF87B308DF87C308DF87D308DF883308DF858301792189219921A921B921C921D92F1
S3850000E0808DF87E308DF87F308DF880208DF881208DF882208DF88C308DF88D308DF88E2002AE34467B4B1B69C3F30363032B1CD0FFF74CFA38B900210120FFF757FA0546002840F0B98003238DF8073000228DF8062001228DF8052024A800F88C3DFFF75BFC0546002840F0A7803146E078FFF7CBF9054668B904F11001607FFFF718F94E
S3850000E100054630B904F1200194F82800FFF7AAFA0546FFF7EDF8022800F09980032800F09980012840F0998004F13606002D53D1F378032B40F0938094F82830002B00F0F38106238DF8073002238DF8063001238DF8053024A800F88C3DFFF71DFC0546637F7BB1012820D101238DF8073000228DF806208DF8053024A800F88C3DFFF795
S3850000E1800BFC0546E37883B1012D0ED102238DF8073000238DF806308DF8053024A8012300F88C3DFFF7F8FB0546ADB9E11DA07BFFF7DCF9054678B9F3788DF80730B3788DF8063073788DF80530337824A800F88C3DFFF7E1FB054675BB00222E4B1A6094F8303013B1E26A2B4B1A6094F8353053B128490A6A22F0706294F834301B0600
S3850000E20003F0706313430B6294F84330D3B104F136010120FFF7BCFA054668B904F13A010220FFF7B5FA054630B904F13E010320FFF7AEFA054628B1284625B0F0BD002C7FF430AF14F1440F28D100BEFEE704F13A066BE704F13E0668E700BEFEE78DF80730B3788DF8063073788DF80530337824A800F88C3DFFF78FFB05460028ABD1E1
S3850000E280E11DA07BFFF772F90546A5E700127A000084FF1F004006400000002094F84430E3B194F8455094F8463094F84720A349486820F400604860496821F47F61002D14BF4FF4006000201B01DBB2120202F4E06213430B430343984A536094F84830DBB194F84A3094F849209449096921F03F0194F84C00014394F84B00002814BF9B
S3850000E300022000209B0003F00C030B43120102F0300213430343894A136194F87030002B37D0864B196C21F0010194F871200A431A641B6C23F0020394F87220002A14BF0222002213437D4A1364136C23F0040394F87320002A14BF042200221343774A1364136C23F0080394F87420002A14BF082200221343714A1364136C23F010034F
S3850000E38094F87520002A14BF1022002213436B4A136494F85030002B38D0694B626D1A60A26D5A60E26D9A6004F160050121634855F8043BC2684E1EF6B2012E12D04EB1022E16D0032E1BD0C26003291ED80131C9B2EDE722F040721B0603F040731343C360F4E722F040629B0603F040631343F6E722F040521B0703F040531343EFE768
S3850000E40022F0404242EA83734C4AD36094F87630EBB14A4A936E00209066516821F4805194F878301B0303F480530B435360906694F877305BB194F879305B0003F00E0394F87A2042F0805213433C4A936604F17C0314F17C0F01D100BEFEE7002B38D0D4F88030002B34D0E36F93B300223548354D02EB8201D4F880305B5C30F81330FC
S3850000E4809B0003F1804303F5CA231E6826F080461E60D4F880305F185E5CBB781B0603F0E063F978C90001F008010B43397901F007010B437978002914BF4FF0804100210B4330F8161045F821300132E36F9A42CFD314F1840F01D100BEFEE794F8843003B31A498B7803F07F0394F8852082F0010243EAC213DBB28B7094F98630002B96
S3850000E500BCBF20335BB2DAB2202A01D900BEFEE70E490A7903F01F0302F0E00213430B71002589E6002587E6637F002B7FF41CAEE378002B7FF42AAE012536E60080044004000020E83501000050064000D0074070B504460D46112808D9232840F288804D2840F289800423184670BD082850D00FD90D2861D022D80A2852D04DD30B289A
S3850000E58055D00C2871D100210520FFF793FA002326E003282DD00AD9052832D02DD3062833D0072861D1FFF73BF8002318E001281AD011D90220FFF719FA002310E00F2847D040D310284AD011284ED101210720FFF770FA002303E00020FFF707FA0023002DC1D02860BFE70120FFF7FFF90023F6E7FFF715FB0023F2E7FEF72FFF002306
S3850000E600EEE7FEF7A3FF0023EAE7FEF783FE0023E6E74D4B18680023E2E7FFF727FA0023DEE700210420FFF745FA0023D8E701210420FFF73FFA0023D2E701210520FFF739FA0023CCE700210620FFF733FA0023C6E701210620FFF72DFA0023C0E700210720FFF727FA0023BAE700200423B7E7FFF72CFB034677E7242806D80423002230
S3850000E680002D3FF471AF2A606EE7A0F13303DBB21A2B07D82D4A22FA03F313F0010F18BF0423ECD12A4B33F814202A4B53F8223013F0804F44D0284B1E5D16F0200F07D116F0400F0ED116F0800F15D100BEFEE70120FFF78BF9024650B116F0180F12D10023CDE70020FFF781F902460028F4D100224FF48073C3E70220FFF777F902466B
S3850000E7000028F5D0E9E716F0080F06D116F0100F0BD100224FF48073B2E700212046FFF7A9FB024616F0100F04D001212046FFF7A1FB0246002A14BF00234FF480739FE74FF480739BE700BF0000002041210004E8350100005006408437010008B900BEFEE710B404460AB900BEFEE7044804600171826003734373002010BC704700BF79
S3850000E780100000203B4B1B79834201D800BEFEE7F0B583B00E4605468DF804008DF8051002F07CFC334B1C7B5C7301238DF80630002C4AD000242F4F04E00134E4B23B7BA34242D9BB6853F82430002BF5D01A79022AF2D01A68996801A890470028ECD07C73002EE9D140F2031500238DF80630A400204E24E00134E4B23B7BA34212D9F4
S3850000E800BB6853F82430002BF5D01A79012AF2D01A68996801A890470028ECD07C73002EE9D14FF4827502F02BFC284603B0F0BD1A68996801A89047043C14F1040FF2D0B3681B59002BF3D1F6E70A4F3B6853F82500FFF775FB7D7105460028C5D102238DF80630034B1B7B002BDCD00024014FC6E700BF1000002008B5FFF769FE08BDB6
S3850000E88000F00F0001230BB900BEFEE7034A10770BB900BEFEE7014BD8777047008000400F2801D900BEFEE7094B1B680BB900BEFEE710B453F820400CB900BEFEE753F82040616053F820309A60002010BC70472400002010B5064B1B6853F82040FFF7CFFF24B1636813B1217BA068984710BD2400002070B5054600F00F06002231467C
S3850000E9000A4800F0D5F90A4B1B6853F825405CB12846FFF7B5FF054B9E7701232373636813B1217BA068984770BD00BF00800040240000202DE9F04F85B09DF838800F2801D900BEFEE78C46754C24680CB900BEFEE754F82040003418BF012425460CB900BEFEE7B8F1020F04D9A8F10404022C28BF00250DB900BEFEE700F00F050124EE
S3850000E98004FA08F4E6B2B2FBF6F706FB17270FB100BEFEE7B3FBF6F706FB17370FB100BEFEE70F9FB7FBF6F70F9906FB1716002E14BF4FF0010B4FF0000B40F0AC800393029267468246574E2946304600F075F9336843F08003336001260EB900BEFEE76B0103F1804303F5004903F51043029A1A600EB900BEFEE74A4800EB451241F2AF
S3850000EA0010030399D150CDF80480CDF8008000231A46294600F076F9012F29D097B1022F3CD0032F4FD03F4C0F9A2946204600F084F901222946204600F0B0F9002E57D100BEFEE70EB900BEFEE7002241F2040329F8032062B20EB900BEFEE792B26B0103F1804303F5004341F214015A52DAE763B20EB900BEFEE79BB241F2040229F8DD
S3850000EA8002300EB900BEFEE76B0103F1804303F50043002141F214029952C4E763B20EB900BEFEE79BB241F2040229F802300EB900BEFEE76A0102F1804202F5004241F214015352AFE70EB900BEFEE7002241F2040329F803200EB900BEFEE76B0103F1804303F50043002141F2140299529AE76B0103F1804303F5004341F21C015A5A6E
S3850000EB0012B242F0020292B25A52054B1B6853F82A3000221A73584605B0BDE8F08F00BF2400002000800040F0B583B09DF820600F2801D900BEFEE7204C24680CB900BEFEE700F00F040125B540EDB2B2FBF5F705FB17270FB100BEFEE7B3FBF5F705FB17350DB100BEFEE7099D01950096FFF7E1FE0546F8B90A9A2146114800F00EF907
S3850000EB80630103F1804303F5004341F21C029B5A23F008031B041B0C9DF82C20002A14BF082200221A43630103F1804303F5004341F21C015A52284603B0F0BD24000020008000400F2801D900BEFEE708B5094B1B680BB900BEFEE753F820300BB900BEFEE7012200F00F01034800F061F8002008BD00BF24000020008000400F2801D943
S3850000EC0000BEFEE708B5094B1B680BB900BEFEE753F820300BB900BEFEE7002200F00F01034800F045F8002008BD00BF24000020008000400F2801D900BEFEE70A4B1B680BB900BEFEE753F820300BB900BEFEE700F00F035B0103F1804303F5004341F210029950704700BF240000200F2801D900BEFEE708B5084B1B680BB900BEFEE7D1
S3850000EC8053F820300BB900BEFEE70A4600F00F01024800F083F808BD240000200080004008B100BEFEE70148704700BF008000400AB981767047C176704700EB4111002341F208028B5001F58052136041F204028B5241F206028B5241F20C028B5041F210028B5041F214028B5241F216028B5241F218028B5041F21C028B5241F21E02F0
S3850000ED008B5270470F2901D900BEFEE710B4DB00DCB29DF8083003F00703234343EAC2239DF80420120202F4E06213439BB2803100EB4111CB8010BC70470F2901D900BEFEE7036813F0800F14D010B400EB411341F208041B59002B12DB00EB41131B5913F0804F0CD122F0404200EB41110A5110BC704700EB411141F20803CA507047B0
S3850000ED8000EB411141F20804085920F47F7020F00300C2F3090303430B51E9E70F2901D900BEFEE710B4034600EB411041F21E04005B10F4004F13D103EB411341F21E00195AC2F30E0201F400411143195241F21600195A01F400410A431A5210BC704703EB4113195BC2F3080201F47E411143195341F21600195A01F47E410A431A5202
S3850000EE00ECE708B50020FFF765FD08BD08B50120FFF760FD08BD08B50220FFF75BFD08BD08B50320FFF756FD08BD08B50420FFF751FD08BD08B50520FFF74CFD08BD08B50620FFF747FD08BD08B50720FFF742FD08BD08B50820FFF73DFD08BD08B50920FFF738FD08BD08B50A20FFF733FD08BD08B50B20FFF72EFD08BD08B50C20FFF72A
S3850000EE8029FD08BD08B50D20FFF724FD08BD08B50E20FFF71FFD08BD08B50F20FFF71AFD08BD38B50020FFF7FBFEC56A002404E06D080134E4B2102C06D015F0010FF7D02046FFF717FDF3E738BD000008B900BEFEE709B900BEFEE702680A6042684A6082688A60C2680A6103698B61324BDB6CC3F30333072B40D010D8032B2ED006D8A5
S3850000EF00012B27D020D94FF0FF33CB601FE0052B2FD02BD94FF0FF33CB6018E00B2B37D006D8092B30D02CD94FF48043CB6018E00D2B35D030D30E2B36D00F2B38D0CB68B3F5803F03D20CE04FF48033CB6000234B6109E04FF0FF33CB60F8E74FF40043CB604FF480534B61002070470023CB60F7E74FF0FF33CB60E9E74FF0FF33CB60A2
S3850000EF80E5E70023CB60ECE74FF0FF33CB60DEE74FF40043CB60E4E74FF48033CB60D6E74FF0FF33CB60D2E74FF0FF33CB60CEE74FF48033CB60CAE70080044008B900BEFEE72DE9F0471746064684688C4221D8C368234499421DD211F0070F01D000BEFEE701F500010C1B4FF4006808F1FF333B4214BF012000201C4D4FF0700A4FF04D
S3850000F000090957B320B92B7813F0800F12D10220BDE8F0873468A14221D373682344994220D211F00F0F01D000BEFEE70C1B4FF48058DBE785F800A085F80790C4F30743AB71C4F307236B71E3B22B71304604F03BFCA7EB08074444D3E7BDE8F0870120BDE8F0870120BDE8F08700BF0000024008B900BEFEE738B504468068884227D883
S3850000F080E5680544A94223D211F0070F01D000BEFEE701F50001091A1748007810F0800F28D020461C46144B70251D700125DD71C1F307459D71C1F307255D71C9B21971110AD972D2B29A725C7204F0FDFB38BD206881420AD365680544A94208D211F00F0F01D000BEFEE7091AD5E7012038BD012038BD022038BD0000024008B900BEF5
S3850000F100FEE72DE9F0470C46904607460BB900BEFEE711F0070F01D000BEFEE712F0070F45D18268914218D3C16811448C4214D204F50004A41A00205E1E1E4D4FF0700ADFF87890B8F1000F32D088BB2B7813F0800F10D10220BDE8F0873A68944206D3796811448C4204D2A41A0020E4E70120E2E70120E0E785F800A00723EB71C4F33D
S3850000F1800743AB71C4F307236B71E3B22B713246094B12F8011F03F8011F4B45F9D1384604F092FB0834A8F108080836CAE70120BDE8F08700000240070002400F00024009B900BEFEE710B40A46436823F007031B041B0C43604168136803F00703D46843EA04630B439168090401F4E0210B435168C90401F460110B431269920502F469
S3850000F20040021343436010BC7047000009B900BEFEE710B40A46036D03F000430365046D0B689B029BB2896801F01F0121430B435168490101F478710B43D468054901EA44510B431269120402F4F8121343036510BC70470000E07F09B900BEFEE710B40A46D0F8041C104B0B40C0F8043CD0F8044C13689B0203F4F843916801F00701B6
S3850000F28021430B4351684901C9B20B43D468074901EA04510B431269120402F4E0221343C0F8043C10BC7047188308C00000F03F022801D900BEFEE70AB900BEFEE72DE9F04186B0984614460E46254B53F82050244B53F82070384600F000FC864239D205EBC6056B79002B37D106F01F02012393401F2E98BF3B6302236B719DF83430A0
S3850000F300AB71E37AEB716368049323788DF80C30237A8DF81430637A8DF81530A37A8DF81630E37A9BB11C230293002301930C9B0093434602AA3146384600F0A5FD034608B100226A71184606B0BDE8F0810C230293EAE74FF44073F5E70223F3E700BF28000020D8370100022801D900BEFEE770B50646294B53F8204094F81131D3B1A6
S3850000F3806379DBB2032B28D0256894F81001FFF735FC2B6813F4001F02D16A68920C6A60C3F3034385F84830AB681BBAAB60EB681BBAEB6011E01A4B53F8205000220521284600F021FC00220621284600F01CFC00220721284600F017FC002323606379DBB2032B08D000236371D4F800511DB194F81131012B04D0A3790BB1637933B15F
S3850000F40070BD2346002208213046A847F4E7201D02F000FF0028F3D000BEFEE728000020D8370100022801D900BEFEE770B50C46094B53F820600022084B53F8200000F0E3FBE4003519AB791BB10434301902F0E1FE00236B7170BD28000020D8370100022801D900BEFEE709B900BEFEE79A4B53F820300BB100BEFEE72DE9F04786B000
S3850000F48015460F460646954B53F820402368002B05DB204600F0D7FB204600F04AFB62686B7A5B0303F4005322F4005213436360204600F029FB204600F0C5FB204600F045FB874B9B5D002B00F0D080236823F400632A7A002A40F0F5802360236D23F00043002213432365D4F8003C23F41F43C4F8003C23682A7AC3F3C0239A4240F0C5
S3850000F500DB80636B23F48053002A14BF4FF48052002213436363AB79022B03D0236843F4003323606B793BB12979204600F042FB0346002840F0BC8095F83430012B08D1236813F0005F00F0B980236843F40043236095F834301BB9236823F400432360E979204600F04BFC2968204600F0B1FD0346002840F09C80236813F4006F7BD046
S3850000F5800DF1040C05F10C0EBEE80F00ACE80F00DEF80030CCF8003001A92046FFF736FE0DF1040C05F1200EBEE80F00ACE80F00DEF80030CCF8003001A92046FFF74CFEA979204600F0D0FBAB79032B02D0204600F02CFB434B985710F1800F01D001F025FD414B985701F021FD404B985701F01DFD3F4B985710F1800F01D001F016FDC5
S3850000F6003B4B334493F9030010F1800F01D001F00DFD07F10409C8460024A2465146404602F00EFE0346C0BB88F802A048F804AC07EBC40282F805A0013408F10808202CECD195F8342087F8112195F8352087F810210022C7F80021C7F80421C7F80821C7F80C211C4A42F8267021E02B7A002B3FF451AF01231BE00DF1040C05F10C0E19
S3850000F680BEE80F00ACE80F00DEF80030CCF8003001A92046FFF794FD92E78CB10025484602F0DBFD013509F10809A542F7D10123184606B0BDE8F0870123F9E70123F7E70123F5E743F400632360236D23F000434FF0004206E700BF28000020D8370100D4370100F4370100E8370100E4370100EC370100022801D900BEFEE70AB900BE56
S3850000F700FEE72DE9F04182B0984617460C4605460F4B53F82060304600F05AFBA8B900230193089B009343463A4621462846FFF7BFFD034628B901222146304600F064FA0346184602B0BDE8F0814FF44073F8E7D8370100022801D900BEFEE710B5074B53F82040064B53F82020D2F808310BB10A219847204600F0C1FA10BDD8370100C7
S3850000F78028000020022801D900BEFEE72DE9F04395B08C4B53F820508B4B53F82060AB6A2A6B134003F00103002463B90134202C00F0B280AB6A2A6B134004F01F02D34003F00103F1E7002B00F0A68007462B6813F0005F79D0072C77D8052C21D17379DBB2012B2AD13168284600F091FA20232B6300237371D6F80081B8F1000F04D042
S3850000F8003346002201213846C047737913B93846FFF7AAFD06EBC4035B79DBB2022B65D112E0062C43D140232B63D6F80081B8F1000F03D0334600220221C04706EBC4035B79DBB2022B51D106EBC40898F80730002B00F0A3802146284600F010FB01AA2146284600F0ECFBAB689DF8073003F00F03042B06D104F01F02012393401F2C97
S3850000F88000D82B63002388F80530D6F80091B9F1000F04D03346224604213846C84798F805300BBB21463846FFF7BCFD1CE0072C14D180232B63D6F80081B8F1000FBDD0334600220321C047B8E74FEAC40906EB090898F80530DBB2012B20D006EBC4035B79DBB2022BAFD01F2C15D8AB6A296B04F01F020B40D34013F0010F0CD02B68D7
S3850000F90013F0005F52D0072C50D8737923B9012393401F2C00D82B6315B0BDE8F0832146284600F0ACFA56F834202146284600F087FB04F01F02012393401F2C98BF2B632B6813F0005F27D056F80930DB7813F00F0F21D12146284600F079FA036823F070630360036843F080630360002388F80530D6F80091B9F1000F04D03346224677
S3850000F98000213846C84798F80530002BA6D121463846FFF747FDA1E7AB68E7E704F01F02012393401F2C98BF2B636BE706EBC4067379002BB0D1012393401F2CACD82B63AAE700BFD837010028000020022801D900BEFEE710B5074B53F82040064B53F82020D2F808310BB10A219847204600F079F910BDD837010028000020022801D988
S3850000FA0000BEFEE7F8B5184B53F82050174B53F820602B6813F4804F25D00446D5F8083B13F4003F0CD0D5F8083B43F40033C5F8083BD6F800711FB1334600220521B847D5F8083B13F4803F0DD0D5F8083B43F48033C5F8083BD6F8005125B13346002206212046A847F8BDD837010028000020022801D900BEFEE7074B53F8203003EB7A
S3850000FA80C1035A7932B15B79DBB2032B0CBF012002207047002070472800002008281BD90C2812D006D80A280BD00CD8092812D10C2070470E280CD009D30F280BD14020704710207047142070471820704720207047302070470020704700000346084A904209D002F58052904207D00020054A934208BF102070472020F8E710207047B5
S3850000FB000040024000B00240036813F4801F0FD0036823F000430360036823F080430360036823F080530360036813F0006FFBD170470368002B07DB036843F000430360036813F4801FFBD07047000070B50446036843F000730360236813F0007FFBD1236843F4805323602046FFF7B7FF04F18001860007D00B4601EB8601002543F813
S3850000FB80045B8B42FBD104F5086230B113463244002143F8041B9A42FBD14FF0FF3323616361A3610022A2622363014B236270BD06003B0038B504460D46FFF78FFF0146236803F40063002B14BF012000201AD1236843F000532360626B2B0603F0706322F07062134363634FF0FF33A36489B249B100236FF0604503F5087244F8225079
S3850000FC0001338B42F8D138BD1F2909D801F01F01012303FA01F12AB9836A23EA0101816200207047836A19438162F9E7036823F080530360036823F080430360036813F0807FFBD1704710B4036843F080430360036843F0805303600368002B15DB012400238360036813F4006F14D0036813F0807F08BF40F2D92118D18268036813F012
S3850000FC80807F13D18A42F8D910E0036823F0004303600024E4E7036813F0807F06D18268036813F0807F01D1B32AF8D9036813F0807F0BD1816A0268036843F000730360036813F0007FFBD1816202603CB9036843F000430360036813F4801FFBD010BC70470000026A034B134013B1024B0362036A704706003B0002003000026A034BE4
S3850000FD00134013B1014B0362036A704704000B0009B900BEFEE770B50D460446D0F88000C0F30340FFF7BAFE85F84800D4F880302B6013F4001F05D0D4F884306B60064628B970BDD4F884309B0C6B60F7E70023883499088A0054F8211009BA2A4491600433B342F5D370BD08B5022923D008D8A1B1012904D1436843F00803436008BD0C
S3850000FD8008BD032907D0042904D1036843F00043036008BD08BDFFF756FF08BD036823F400030360436823F008034360436823F48053436008BD436843F480534360436823F008034360036823F40033036008BD036803F07F038B420DD3036813F0005F0BD0406BC0F303604000073081428CBF00200120704701207047002070470368D6
S3850000FE0013F4006F06BFB1FA81F35B0901230BB900BEFEE7036813F4006F07D0D0F8003C23F4403343EA0143C0F8003C7047036813F4006F09D0D0F8000CC0F301400330012303FA00F0C0B270470820FBE738B504460D46FFF7EBFF0830C0B24FF40073B3FBF0F3DBB2B5FBF3F203FB12538008D20100FB0320203004EB800038BD08B50E
S3850000FE80FFF7E5FF036808BD2DE9F84F0A9E9DF82C700AB900BEFEE7154699468B468046FFF7D5FF044600F1080AD8F8003003F07F039B4500F2A880D8F8003013F0005F40F0AC80D8F8003013F4006F07D0AB7B2BB1D8F8003C43F00043C8F8003C95F808B04046FFF7A3FF834507D900BEFEE7D8F834304FF44070BDE8F88FD5F808B0EE
S3850000FF005FFA8BF3402B9ABF4B4AD05CFF2080465EB3FFF7C3FD3BF003030DD0002399088A00083256F8211009BAA1500433AA6822F003029A42F2D8AA6893420AD21E4483F0030216F8011B0AF802100133AA689A42F5D80346824207D282F00301687B0AF8010001329A42F7D10023236063602B79012B39D1636803F060436360626890
S3850000FF8029F06043134363604FF400132A7962B9636823F0FF5323F4E01363606268274B03EA89431343636000234FEA084202F4702213432A680F2A23D01C2A17D143F4801323F07063297BB1B1120602F0706242F000421343AA7B0AB143F080432268134323600020BDE8F88F0023CEE7002FE7D043F48013E4E7120602F07062134331
S38500010000E9E70020BDE8F88FD8F8003013F0005F7FF46EAF4FF44070BDE8F88FD8F83430C3F303635B0007339B453FF64BAF4FF44070BDE8F88F00BFF83701000000FC1F0AB900BEFEE72DE9F04114460746FFF7FEFE064604F108080068C0F30340FFF71DFD05463846FFF7E2FE854203D93846FFF7DDFE054684F848503368236013F415
S38500010080001F22D07368636035F0030008BF00230BD0002399088A000832B25812BA48F821200433DBB28342F4D39D420BD9DA1D144483F003020832B25C04F8012F0133DBB29D42F5D1BDE8F08173689B0C6360DAE709B900BEFEE72DE9F8430D460446FFF7A5FE064605F1FF3841462046FFF7AEFE37468319083304F52072934232D8FC
S385000101002046FFF7EBFC854231D8236823F07F0308F07F0843EA08032360216811F0005102D00020BDE8F8832DB30026B04607F1080904E00136F6B23146B54210D92046FFF785FEC0F80080C0F80480002FF1D000F10803484403F8018B9842FBD1E9E70020BDE8F8834FF44070BDE8F8834FF44070BDE8F8830020BDE8F88308B50020B4
S38500010180FFF7E8FA08BD08B50020FFF71FFC08BD08B50020FFF732FC08BD08B50020FFF7F1FA08BD08B50020FFF7ECFA08BD08B50120FFF7CFFA08BD08B50120FFF706FC08BD08B50120FFF7DDFA08BD08B50220FFF7C0FA08BD08B50220FFF7F7FB08BD08B50220FFF7CEFA08BD0000032801D900BEFEE709B900BEFEE76D4B53F82030D2
S385000102004A78002A40F090808A78002A40F0A180CA7802F001020878002800F0C580002A40F09380D3F88C2042F48062C3F88C20D3F88C2042F40062C3F88C20D3F88C2042F48052C3F88C20D3F88C2042F40072C3F88C20D3F88C00CA7A120202F4807220F480700243C3F88C20D3F88C2042F08002C3F88C204A78002A57D09A6D42F050
S3850001028010029A658A78002A55D09A6D42F020029A65CA78002A53D09A6D42F040029A65986D0A79520002F0020220F0020002439A659A6D22F00102487902439A659A6D087A003018BF012022F0080242EAC0029A65D3F88C008A79120102F0100220F010000243C3F88C20D3F88C00CA79520102F0200220F020000243C3F88C20D3F84C
S385000103008C004A7A920002F0040220F004000243C3F88C20D3F88C2022F00102897A0A43C3F88C2000207047012272E79A6D22F010029A65A6E79A6D22F020029A65A8E79A6D22F040029A65AAE701207047012070470A78002AFAD1002A7FF463AFD3F88C2042F48022C3F88C20D3F88C2042F40022C3F88C20D3F88C2042F48012C3F81F
S385000103808C20D3F88C2042F40032C3F88C20D3F88C20C87A003018BF012022F4803242EA0042C3F88C2060E7002AD8D1012070473C380100032801D900BEFEE710B582B0184B53F8203000220192174A52F820200AB900BEFEE71B6803F0070301249C401378022B10D0032B06D0012B11D101A90020FEF741FA04E001A90C4B185CFEF709
S385000104003BFA40B100BEFEE701A91A20FEF734FAF7E70020F5E7E4B20198B0FBF4F002B010BD00BF3C380100340000204C380100032801D900BEFEE709B900BEFEE70AB900BEFEE7F8B58C7B631EDBB2022B01D900BEFEE7354B53F82050354B53F82030002B35D1147053709380314B43F8202002F10C0402F11C0702F15C0E02F13C0C19
S385000104803E46002324F8023B46F8043B4CF8043B0EF8013BBC42F5D114460F460646284600F068F8797B284600F058F83046FFF781FFA06070B900BEFEE7002416E02B6823F480732B601B4B985700F0C3FD2BE0012429E03A7B931EDBB2022B01D9082AEBD139463046FFF781FE0446EA6E7B7C9B0103F0400322F040021343EB66D5F8D7
S385000105008420FB7B9B01DBB222F0C0021343C5F884303B7C002BD2D02B6843F480732B60044B985700F082FD2046F8BD3C3801003400002050380100032801D900BEFEE709B900BEFEE7044B53F820309868B0FBF1F080B2704700BF34000020436D43F001034365036823F0070301F007010B430360704710B4436F0023436704224265A9
S385000105800268036043608360C364026D03658365C365036643668366C26EC36603678367C367C0F88030C0F88430C0F88830C0F88C30C0F89030C0F89430C0F89830C0F89C30194600EBC302D468D16011610133082BF7D110BC7047072901D900BEFEE701290DD9052999BF0239012306394FF480738B403AB9C26E22EA0303C36670477A
S3850001060010238B40F6E7C26E1343C366704700002DE9F047BDF820C0032801D900BEFEE707298CBF4FF0000E4FF0010EBEF1000F01D100BEFEE74C08544D55F82060544D55F82070B568ADB27878042824D16D00ADB2002052BBB3F5004F00F28D80BCF5004F00F28C8005FB03F2C2F3CF3205FB0CFCCCF3CF3CB3F5004F1ED1531C9BB286
S38500010680C8B9032C8CBF4FF000094FF00109B9F1000F14D100BEFEE7032801D0082803D10135ADB20020D5E70120D3E79D4269D36545E5D20120BDE8F0871346E0E7D6F864A04FEAC408012202FA08F212EA0A0F39D0B9F1000F01D100BEFEE7716E802202FA08F20A4213D0326812F0180F08D16200072A01D900BEFEE7013206EBC2028B
S38500010700936063000133DBB2072B0BD900BEFEE76200072A01D900BEFEE7013206EBC2029360EEE7013306EBC303C3F808C0B26D9DF82430DB01DBB222F080021343B365BD80BDE8F087326812F0200F0AD05B08BEF1000F01D100BEFEE74A1C06EBC2029360E4E7BEF1000F01D100BEFEE74A1C06EBC2029360DAE70120BDE8F087012034
S38500010780BDE8F0870120BDE8F08700BF3C38010034000020032801D900BEFEE709B900BEFEE72DE9F04F85B0AB4B53F82080AB4B53F82040B8F1000F00F0FF8398F80130002B40F0FC830D460290236823F018032360236823F4007323602368636D43F0040363658B7888F801300B78002B00F05681CB681E7871085B79072E8CBF00203E
S38500010800012008B900BEFEE70027BA464FF001094FF0020BDFE0226F09FA06F313432367E2E008B900BEFEE704EBC603DA6842F00402DA60DA6822F00802DA60E8E000BEFEE7A3B1626ECB004FF0100C0CFA03F313436366731CDBB2072B8CBF4FF0000C4FF0010CBCF1000F0BD100BEFEE7636ECA004FF0100C0CFA02F223EA02036366D4
S38500010880E8E704EBC302D2F80CE02EF0040EC2F80CE0D2F80CE04EF0080EC2F80CE0032901D900BEFEE7D4F864E0CA000BFA02F242EA0E026266EA683A4492F807E0BEF1010F40F0B5805279BCF1000F01D100BEFEE7002A40F0A680226F09FA03F322EA0303236703298CBF00230123002B00F0C380626EC9004FF0040C0CFA01FC22EA98
S385000109000C026266002B00F0B980626E09FA01FC22EA0C026266002B00F0B280626E4FF0800C0CFA01FC22EA0C026266002800F0A98004EBC602D06840F01000D060D06840F02000D0606A69D278002B00F09C80002A00F09B80606E40228A4002436266002B00F09A80626E202303FA01F10A436266EB683B441A7931462046FFF72CFE31
S38500010980226806F1100309FA03F313432360EB683B449B793BB12268731CDBB2103309FA03F3134323600AF1010A5FFA8AFA2B78534574D90AEB8A014B001F46EA68134412F8116071085B79072E8CBF0020012000283FF417AF002B7FF41DAF236F09FA06F223EA02032367EB683B445A795B789A423FF416AF00283FF421AF04EBC6034D
S38500010A00DA6822F00402DA60DA6842F00802DA60EB683B449A791AB31B7A07297FF611AF00BEFEE7226F09FA03F31343236759E75279BCF1000F01D100BEFEE732B1226F09FA03F322EA030323674BE7226F09FA03F31343236745E7340000203C380100032901D900BEFEE7636ECA000BFA02F223EA0203636635E700BEFEE700BEFEE71A
S38500010A8000BEFEE700BEFEE700BEFEE7626E4020884022EA0002626662E700BEFEE79D4B029A53F822606B78002B00F07A812B691A784FEA520C12F0010F11D15B7B072A8CBF0020012020BB00BEFEE7039B1F012B69D919DA5D4FEA520C12F0010F01D000BEFEE74B7B072A8CBF002001200028EAD09BB9336F09FA02F123EA01033367AC
S38500010B002B693B44597B1B7A99421FD160B900BEFEE7002703974FF00109EAE7316F09FA02F30B433367EBE706EBC203D96841F00401D960D96821F00801D960BCF1030F8CBF0021012179B900BEFEE708B900BEFEE706EBC203D96821F00401D960D96841F00801D960E9E7D6F864E04FEACC034FF0040A0AFA03FA2EEA0A0EC6F864E05A
S38500010B8008B900BEFEE706EBC200D0F80CE04EF0100EC0F80CE0D0F80CE04EF0200EC0F80CE0D6F800E002F1100009FA00F040EA0E0030602869384490F809E0BEF1000F58D002F1010E5FFA8EFE807BBEF1070F8CBF4FF0000A4FF0010ABAF1000F01D100BEFEE750B9306F09FA0EFB20EA0B003067BAF1000F09D100BEFEE7D6F870B056
S38500010C0009FA0EF040EA0B003067F2E706EBCE00D0F80CA02AF0040AC0F80CA0D0F80CA04AF0080AC0F80CA02869384490F80EB090F80DA0D3452ED190F80AA0BAF1000F1ED18079012801D100BEFEE709B900BEFEE7706E4FF0020A0AFA03FA20EA0A007066D6F800A00EF1100009FA00F040EA0A0030606869C07800292DD100BEFEE753
S38500010C8009B900BEFEE7D6F864A00220984040EA0A007066E5E790F80AA0BAF1000F0AD109B900BEFEE7D6F864A00220984040EA0A007066D5E78079012801D100BEFEE709B900BEFEE7706E4FF0020A0AFA03FA20EA0A007066C4E748B1D6F864E04020984040EA0E00706651B900BEFEE7706E4FF0400E0EFA03FE20EA0E007066F3E733
S38500010D00D6F864E02020984040EA0E00706619B900BEFEE73C380100D6F864E009FA03F040EA0E00706628693844C07909B900BEFEE760B1706E8021994001437166296939448979BCF1070F08D900BEFEE7716E8020984021EA00017166F0E7002953D0706E102101FA03F30343736602F0FE0A2B693B44DA7A51463046FFF72DFC2B6910
S38500010D803B440AF101011A7BC9B23046FFF724FC039B0133DBB21A4603936B7893423FF695AE636D43F0020363656B69DA78002A7CD01B78002B2FD0E36F43F40043E367E26F6B699B781B0203F4706322F470621343E367029B042B34BF4FF0040C4FF0020C04260020012703466A6900EB40010A441279002A43D0C2B2032A8CBF002230
S38500010E00012272B900BEFEE7716E102000FA03F321EA03037366A9E7E36F23F40043E367CEE7E16F07FA00FE41EA0E01E167696900EB4009494449790AB900BEFEE771B1D4F87C9007FA06F141EA0901E167696903EB43030B449B7942B900BEFEE7E16F07FA06F921EA0901E167F0E7012BD4F888300CBF23EA0E0343EA0E03C4F8883085
S38500010E8001300136C3B29C45AED86B695B781BB1636D43F080036365626D6B69DB785B0103F0600322F06002134363652368AA78042A14BF0022012223F0200343EA42132360A9680298FFF737FBA8F80400E36C1B0C1B04E364AB78042B3BD1A368B8F804201B0C1B0443EA5203A3602B78002B67D00026374606EB8601EA6802EB410380
S38500010F005B8812F81110019700973A460298FFF77FFB0136F6B22B78B342ECD86B7893B1002637463101286942185388415C0197928800923A460298FFF76AFB0136F6B26B78B342EED8002833D1EA783F2A0BD900BEFEE7A268B8F80430013B9BB2120C12041343A360C1E7A36E23F03F0302F03F021343A366A26E2B799B01DBB222F0C2
S38500010F80C0021343A366636D43F001036365636D43F008036365226898F80030DB0003F0180322F0180213432360002005B0BDE8F08F002388F80130F8E70120F6E70120F4E76B78002BABD1BFE700BF10F10E0F01DA00BEFEE77A2801DD00BEFEE710B40E4B0F4C9C4203D10E4B0F4C9C420CD12AB100F110030A4C54F823301360103078
S38500011000074B43F8201010BC70471030044B53F820309942F7D000BEFEE700BF00C000000080FF1FFC3F0100D8380100002801DA00BEFEE77A2801DD00BEFEE7420900F01F00012303FA00F0014B43F82200704700E100E0002801DA00BEFEE77A2801DD00BEFEE7430900F01F00012202FA00F02033024A42F82300704700BF00E100E095
S38500011080054B1B68002B04DD013B034A1360002B00DD704762B6FCE74400002072B6024A13680133136070474400002000B583B001281CD060B1022803D0032819D000BEFEE71A2001A9FDF7D7FB60B100BEFEE701A90B20FDF7D0FB08B100BEFEE7019B4BB900BEFEE7019B2BB900BEFEE71C20E8E74920E6E7019803B05DF804FB0000E8
S3850001110008B100BEFEE72DE9F04F83B00D4601460DB900BEFEE7D5F808A0EE786C79AF7995F80CB0002E40F0D0802879FFF7BEFF844608B900BEFEE7BBF1010F54D17E4A00237E480021ECFB0A01FBF7B1FC03460C46CDE900340127002908BFB0F1011FC0F0DA80BA465FFA8AF4AAF12002CAF12003012101FA02F921FA03F349EA03099A
S3850001118001FA0AF858EA090301D100BEFEE75FEA59014FEA380042464B46DDE900BC1BEB000B4CEB010C58466146FBF781FC002908BFB0F1011FC0F0BC800134E4B20AF1010ABAF1110FCED14FF6FF7A00234CB1013CE4B200279BB900BEFEE74FF0000A5346F4E70024F6E7BBF1000F01D000BEFEE7BAF5803F01D300BEFEE71FFA8AFA5A
S385000112004F4800F0E5F82A784D4B1B6823F4C073002A14BF4FF4807200221343484A13606A78474B1B6823F0C003002A14BF402200221343424A1360AA78414B1B6823F08403002A14BF0422002213433C4A13601146126822F08202730003F0020313430B604A6822F07802E30003F0780313434B604B6823F00403002F14BF0422002211
S3850001128013434B602B794A6822F0030203F0030313434B608B681B0C1B044AEA03038B606B7B0A6822F0B0021B0103F0300313430B60AB7B0A6822F08802DB0003F0080313430B6003B0BDE8F08F012E01D000BEFEE7BBFA8BF35B0998460BB900BEFEE72879FFF7E3FE002808BFB846B8F1000F01D100BEFEE72FB9231C18BF01231BB956
S3850001130000BEFEE73B46FAE7BAF5803F01D300BEFEE71FFA8AFA73E70024DDE9002313433FF45CAF009B03F1FF381FFA88FA3B464DE7CDE90001F0E740420F0020A107000000044008B100BEFEE709B900BEFEE710B51446FFF7D4FE34B1044A136823F0810343F00103136010BD00BF0000044008B100BEFEE7034B1A6842F080021A60E2
S385000113801B6870470000044008B100BEFEE738B501460E4B5D68C5F380051C68C4F34004586800F00300FFF781FE28B9002D08BF00241CB900BEFEE70124FAE7034A136823F0810343F00103136038BD0000044008B900BEFEE7026822F08102026000220260426082607047022801D900BEFEE738B5144B53F82050134B53F82040E38D72
S385000114009BB2022B17D10023E38500220F49284600F059FDAB6923F40023AB61AB6913F4002FFBD100232374A37C1BB104F12C0000F0F0FE38BD00220549284600F043FDE3E700BF5438010048000020160003001700030038B5154B53F82040144B53F82050236923F40003236195F82A00FDF7C5FB00220F49204600F025FDA36923F4C6
S385000114800023A361A36913F4002FFBD1AB7C43B9EB8D9BB2022B04BF0023EB8500232B7438BD05F12C0000F0B5FEF1E754380100480000201600030008B50E4B53F820200D4B53F820001368127D12B91B78037708BD012A06D11A78597842EA012100F0B5FC08BD1A78597842EA012100F0B9FC08BD00BF4800002054380100022801D9EC
S3850001150000BEFEE709B900BEFEE738B5194B53F82030194C54F82040587C40BB151C18BF012528460DB900BEFEE71D7D1DB182F0010000F0010008B900BEFEE7012058745960DA6002221A86A36943F48023A361A36913F4802FFBD00121204600F034FD01220649204600F0AEFC002038BD022038BD00BF4800002054380100150003002D
S38500011580022801D900BEFEE709B900BEFEE72DE9F04385B0214B53F82050214B53F82040637C002B38D10AB900BEFEE70F46804694F8290001260396029201964FF00009CDF800900B4605F11C024946FDF7ACFA4246144994F82900FDF762F994F82900FDF7F0FA6760C4F80C90667402232386AB6943F48023AB61AB6913F4802FFBD0EB
S385000116000121284600F0E0FC2B6943F400132B61002005B0BDE8F0830220FAE75438010048000020F5160100022801D900BEFEE738B5144B53F82040134B53F82050AB6923F48023AB61AB6913F4802FFBD10021284600F0B9FCEB6900220C49284600F032FCE37C2BB104F12B0000F0D3FD0023E37400236374238E9BB2022B04BF00235A
S38500011680238638BD48000020543801001500030038B5164B53F82050154B53F82040AB6923F48023AB61AB6913F4802FFBD10021284600F089FC2B6923F400132B61EB6994F82900FDF79AFAE37C43B9238E9BB2022B04BF002323860023637438BD04F12B0000F097FD0023E374EFE7543801004800002070B50546254B53F82040254BED
S3850001170053F82060012904D0238E9BB2022B13D070BD01232386FFF7BBFFA3691BB1E269032120469847736923F0C02323F4F81343F470237361E7E7A3691BB1E269002120469847E3688BB92846FFF7A1FFA3691BB1E269022120469847736923F0C02323F4F81343F470237361D1E7616894F82900FDF75FFAE16894F82900FDF776FAD7
S385000117800023E36094F82900FDF71CFA70BD00BF480000205438010010B582B0144B53F82030144A52F820005C681B7D33B90CB900BEFEE7C369237002B010BD012B0BD10DF1060100F05EFBBDF806302370BDF806301B0A6370EFE70DF1060100F060FBBDF806302370BDF806301B0A6370E3E74800002054380100022801D900BEFEE791
S38500011800034B53F8203098699961DA61704700BF48000020022801D900BEFEE72DE9F84380460E46144609B900BEFEE7214B53F82050214B53F82070003218BF012213460AB900BEFEE73A7D1AB184F0010303F001030BB900BEFEE73B7C43BBAB6943F40023AB61AB6913F4002FFBD08CB1DFF84C904946284600F082FB0028F9D03E60B5
S385000118804046FFF719FE3B7D73B90136013C002CEFD1AB6923F40023AB61AB6913F4002FFBD10020BDE8F8830236023CEFE70220BDE8F883543801004800002017000200022801D900BEFEE709B900BEFEE710B5094B53F820300024DC7493F82830012B01D900BEFEE7012B02D1FFF707FE10BDFFF746FE10BD00BF48000020022801D905
S3850001190000BEFEE73D4B53F8203033B11A7C0AB1022070475B7C002B6DD12DE9F04182B00D46374B53F8204001A9364B185CFCF7A3FF019F0FB900BEFEE7AB009F4201D200BEFEE7B7FBF3F39BB29900B7FBF1F18D4234BF491B691AB7FBF5F8B8F1200F28BF4FF02008B8F1040F26D94FF0050E042276460EFB05FCB7FBFCFC1FFA8CFC4E
S3850001198006FB0CF0B7FBF0F0854234BF401B281A884202D80146724663460136B6B2B646B045E7D2072A03D8216941F400312161013A1F2A03D900BEFEE70422F4E7216921F0F851120602F0F8520A4322615A1E41F6FE718A4201D900BEFEE7226922F4FF5222F01F02C3F30C0313432361002002B0BDE8F0810220704700BF48000020C8
S38500011A005438010060380100022801D900BEFEE709B900BEFEE70AB900BEFEE7F0B583B014460D460646414B53F8207001A9404B185CFCF721FF019B0BB900BEFEE73D4B53F82620B2FA82F2520913460AB900BEFEE7E2791AB9A379B3FA83F35B091A460BB900BEFEE7A379022B03D12279B2FA82F252090AB900BEFEE76B1E05F1330199
S38500011A80002203F8012F8B42FBD12A4B43F82650E37985F82830A3792B75237A85F82930637A85F82A30384600F098F921683046FFF724FF237983B30122A179384600F09FF92179384600F0B2F93B69627923F4005343EA42333B610024EC852C86214605F12B0000F0ACFB0746214605F12C0000F0A6FB012F16D001280CD00E4B9C5785
S38500011B0000220E4B53F826102046FFF75FFA2046FFF78CFA002003B0F0BD0022A179384600F06EF9CDE73846F5E700BF54380100603801004800002064380100A084FF1F022801D900BEFEE709B900BEFEE70AB900BEFEE7034B53F820305960DA600020704700BF48000020022801D900BEFEE7F8B504468D4B53F820608D4B53F82050E0
S38500011B808C49304600F0FBF9C0B140F201632B8695F82830012B40F0E6802046FFF744FDAB691BB1EA69032128469847736923F0C02323F4F81343F4702373617E49304600F0DDF9C0B140F203632B8695F82830012B40F0CC802046FFF726FDAB691BB1EA69032128469847736923F0C02323F4F81343F4702373617049304600F0BFF9A7
S38500011C00C0B140F204632B8695F82830012B40F0B2802046FFF708FDAB691BB1EA69032128469847736923F0C02323F4F81343F4702373616249304600F0A1F9C0B140F205632B8695F82830012B40F098802046FFF7EAFCAB691BB1EA69032128469847736923F0C02323F4F81343F4702373615449304600F05EF930B35349304600F021
S38500011C807EF908B34A4B53F824502046FFF784FD2B7D002B77D16B6801336B60EB68013BEB60EB682BB9AB691BB1EA69002128469847EB6843B92046FFF7B6FCAB691BB1EA690221284698474049304600F032F960B33F49304600F052F938B3344B53F82450324B53F82470AB68FBB12046FFF7E3FB2B7D002B4DD12B6801332B60AB68A1
S38500011D00013BAB60AB688BB92B6A1BB16A6A012128469847AB684BB900222C49384600F0D2F801222B49384600F0CDF82949304600F000F9B0B12849304600F020F988B11B4B53F82450AB6863B995F82830012B27D12046FFF748FB2B6A1BB16A6A022128469847F8BD2046FFF792FC18E72046FFF78EFC32E72046FFF78AFC4CE7204656
S38500011D80FFF786FC66E76B6802336B60EB68023BEB6086E72B6802332B60AB68023BAB60B0E72046FFF756FBD6E700BF543801004800002013000200110002001000020012000200150003001500020017000300170002001600030016000200064B0361064B436100238361036243624FF470328262C362704700BF0400000F00C01FC0E7
S38500011E0010B40C4602B14C1C022C0BD0836923F0100343EA04138361036923F00053036110BC7047036943F000530361F8E7826901F0FE0322F0020213438361836923F0010301F001011943816170478369C1F3002223F0804343EA82738361C9B201777047836923F08043C1F3002243EA827323F00043C1F3402243EAC2738361C9B2B2
S38500011E800177704709B900BEFEE710B48369DB0F1B020B80C269D2B213430B8010BC70470A4609B900BEFEE783695B0D03F400730B808169C90F43EA01231380C169C9B20B431380704710B48BB2090C03291DD00FD9062924D0072916D1816A01249C4021F4403121EA040102FA03F30B4383620AE0012908D1016901249C4021EA0401B1
S38500011F0002FA03F30B43036110BC7047816901249C4021EA040102FA03F30B438361F3E7416A01249C4021EA040102FA03F30B434362E9E70B0C032B13D009D9062B16D0072B1AD1806A89B2C84000F001007047012B12D1036988B223FA00F000F001007047806989B2C84000F001007047406A89B2C84000F001007047002070470B0CF5
S38500011F80042B13D009D9062B16D0072B1AD1806A89B2C84000F001007047022B12D1436988B223FA00F000F001007047C06989B2C84000F001007047406A89B2C84000F0010070470020704738B505460C460A460949FFF778FF224608492846FFF773FF224607492846FFF76EFF224605492846FFF769FF38BD00BF1B0003001800030092
S385000120001A0003001900030008B50020FFF7ACFD08BD08B50120FFF7A7FD08BD08B50220FFF7A2FD08BD60B170B506460C460025204600F04BF801351834AE42F8D1002070BD0020704710B4036801248C4023EA04038A401A43026010BC704700697047184B98421ED10D2913D004D859B101290CD0FF2070470F2911D00DD31029F8D116
S3850001208002F00D00704742F00100704742F00200704742F00400704742F00800704702F00E007047084B98420AD119B1012904D0FF20704702F00B00704702F007007047FF20704700A0044000B0044038B504460068031C18BF01230BB900BEFEE71A46E37A012B02D032B900BEFEE72269003218BF0122F7E761681F2901D900BEFEE775
S3850001210050F82120257A012D58D01DB1022D5AD000BEFEE722F00202657A2D0105F0100522F050022A43A57AAD0105F040052A4322F4E065082B12D1314B5A6802F00F02FFF78EFFFF2841D02D4A536823F00F035360516800F00F030B43536000231B0203F4E0632B43227BD20392B223F478231343627B120402F470221343A27B0AB11C
S3850001218043F080732268616842F821302168D1F8C03060680122824023EA0202E37B83401343C1F8C030E37A012B18D121694B69227D6AB1012A13D000BEFEE722F0010242F00202A8E742F00302A5E70023C6E7616801228A4023EA02032269536138BD606801228240134305460A680120A84022EA0000627DAA4002430A60EDE700BF50
S3850001220000800440024A136801331360704700BF5400002008B900BEFEE710B50446FEF73DFF2378DBB2FF2B08D023780133DBB223700024FEF724FF204610BD0124F9E708B900BEFEE738B504460D46FEF726FF2570FEF715FF002038BD08B900BEFEE70020704708B5FAF73FFE08BD08B5FAF785FF08BD08B5FAF70BFF08BD08B5002112
S38500012280FAF752FF08BD08B50A460021FAF75EFF08BD08B5FDF7E4F808BD10B582B0049C0094FDF727FA02B010BD38B50D461446FFF7D4FE0121A94008401CB1003018BF012038BDB0FA80F0400938BD08B5FFF7BAFE08BD08B50020FFF74AF800F02EFD08BD08B5FFF72EF808BD08B5FEF79EFE08BD08B5FFF748F808BD08B5FFF77CFAD0
S3850001230008BD08B5FFF7DCFA08BD08B5FFF718FC08BD0000F8B527490020FFF7A3FF0020FFF7A4FF24490120FFF79CFF0120FFF79DFF224B1B79002B3AD00024204E214D1E4F15E006EB4412C4EB441005EB8000517C043000F05CFBC4EB441005EB8000643000F01BFC0134E4B23B79A3421FD906EB44131B7C022B04D0032B0DD0012B3C
S38500012380EAD1DFE706EB4413C4EB441005EB8000597C043000F065FBDEE706EB4412C4EB441005EB8000517C043000F0C1FBD3E7F8BD00BF683801007438010084000020D089FF1F8C02002030B4184B1C79184B1A78531C93FBF4F204FB12321CB32146D2B292FBF4F004FB1020C5B2114B03EB45139B79284683B9531C14440D4DA342A2
S385000124000FD093FBF1F001FB10300133C2B205EB42129279002AF2D0C0B2054B187030BC7047FF20FBE7FF20F9E700BF84000020AC84FF1FD089FF1F2DE9F04182B004462B4B03EB40131B7C022B37D0032B42D0012B08D0274AC0EB40139B00D118D35AA1F86C300BE0234AC0EB40139B00D5182846D15A043000F0D8FAA5F86C00670117
S385000124801B4D3D44AB69EA8AA98A1A4EA7EB040806EB8808B8F86C00ED69009500F0A5FA0146C8F8700008F1640000F093FBFAF7B9FAC8F8740002B0BDE8F0810D4AC0EB40139B00D5182846D15A043000F0EFFAA5F86C00D3E7074AC0EB40139B00D5182846D15A043000F033FBA5F86C00C6E7D089FF1F8C02002030B583B02D4B1B781C
S38500012500012B10D02BB1022B1DD0032B42D003B030BDFFF759FF284B1870FF28F7D00122244B1A70F3E7244B1B785B0103F10801224A13440A440021D879FFF79BFE02221C4B1A70E3E71C4B1A781C4B03EB4213D879FFF793FE0028D9D0184C164D2B7804EB43130DF10601D879FFF78CFE2878C0EB4012BDF80610114B23F82210FFF721
S385000125805BFF287804EB4014E36898470322094B1A70BCE7084B1A78084B03EB42135B8823B1064B03EB4212002393710022014B1A70ACE75900002058000020D089FF1F8C02002008B5FFF797FF08BD0F4B1879D0B170B40E4B0138C0B2013003EB40100125002603E09D71203383420BD059880029F8D09A88013292B291428EBF9A8054
S385000126009E809D71F0E770BC704700BF84000020D089FF1F08B5034A03490020FFF739FE08BD00BF1486FF1FA8000020F0B4BDF810C00B4D86003718FF00EC196160EA55002284F822206370A4F81EC0A4F820C02272A27422746274059B6362F0BC7047080300200F4B9B78C3B170B582B00E4C00250C4EA37A627A21690191A1890091FF
S385000126806168E8B2FFF7D2FF01351434B378AB42F0D80022054B1A7002B070BD0022034B1A70704784000020F089FF1F5A00002070B582B02E4B1B78022B4BD011D8C3B1012B0CD12B4A02F1150300935368083200210846FFF7E1FD0222254B1A7002B070BD032B40D0042BF9D10022204B1A70F5E7214B9C78002CF1D0204B93F82230D2
S385000127002BBB1E4A0123D8B2A042E8D21D4692F84A10013328320029F5D0184CAE00731904EBC303002283F822205B6A98473544104E04EBC5050FCD0FC60FCD0FC695E8030086E803000122094B1A70C7E700252846E2E700210846FDF78AF90228BED00322034B1A70BAE70422014B1A70B6E75A0000205C000020840000200803002099
S3850001278008B5FFF795FF08BD0D4B9A78BAB110B40C4B013AD2B2013202EB820203EBC202012402E02833934208D019780029F9D05978012908BF83F82240F3E710BC70478400002008030020114B9A78FAB110B4104B013AD2B2013202EB820203EBC202012402E02833934210D019780029F9D059780429F6D1198C013989B219840029D8
S38500012800F0D1D98B198483F82240EBE710BC7047840000200803002070B504463E48C4EBC4039B00C518AA7B003218BF01222979C058FFF73AFD2876EB7B012B31D013B1022B58D070BDC4EBC403334A02EB83039B7E012B17D0C4EBC4032F4A02EB83039B7B834257D11546E600331B02EB830318469989083000F06FFA341B05EB84052A
S385000128800123EB7370BDC4EBC40302EB83039B7B834240D0C4EBC40402EB84040023A37670BDC4EBC4001D4B03EB800000F05CFA88B3C4EBC403184A02EB83031A7E9B7B934207D0C4EBC404134B03EB84040023E37370BD104DE600331B05EB83035A7601221A745B6920469847341B05EB84050223EB7370BDC4EBC403074A02EB830356
S385000129009B7B834207D01346E200111B03EB810148760022CA7370BD188AFF1F208AFF1F084B1A7862B1084B013AD2B20132C2EBC20203EB82020021D9731C339342FBD1704700BF84000020188AFF1F38B5074B1B784BB10024054D2046FFF75DFF0134E4B22B78A342F7D838BD00BF8400002010B5064C4300191804EB810103440A7A61
S38500012980097954F82300FFF7A1FC10BDC08AFF1F10B5064B4200111803EB81010B7A83F001030B72FFF7E4FF10BD00BFC08AFF1F0B4B5B7893B170B500240A4D084E63001A1905EB8202D37913722046FFF7D0FF0134E4B27378A342F1D870BD704700BF84000020C08AFF1F704730B4029CE41A451A521A09D002EBD270401005FB040402
S38500012A0094FBF2F0184430BC70474FF0FF30FAE70164002343648364C364831E3E30002223F8022F8342FBD1704710B4846C436C30F8132020F813102144891A8164026C0133B3FBF2F402FB14334364C36C9A4284BF0133C364C06CB1FBF0F080B210BC704701640023C364831E3E30002223F8022F8342FBD1704770B44E1E15D001F196
S38500012A800044013C00EB440400250CE01A8859888A4284BF19805A800233A342F6D10135023CB54201D00346F7E770BC704730B591B00546046C012C07D000EB4403023B33F8022D5A808342FAD12980EB6C9C4284BF0133EB64E96C61B1AA1EADF1020310A800EB4104423C32F8020F23F8020FA342F9D16846FFF7BFFFEB6C13F0010F08
S38500012B0007D023F0010310AA134433F8400C11B030BD5B0810AA02EB430232F8420C10AA02EB430333F8403C1844C0F34F00EEE710B504460846F9F75BFD0449F9F760FE60650023A3650023E36510BD0000C842F8B504460D46C36DCBB1466D31464FF07E50F9F78FFCA16DF9F796FD07462846F9F73EFD3146F9F78FFD01463846F9F763
S38500012B8083FCA065A06DF9F773FF80B2F8BD0846F9F72AFDA0650123E365F3E70023036000234360704710B504460021F9F726FF38B14FF07C512046F9F766FCF9F732FF10BD4FF07C512046F9F75CFCF9F72AFF10BD0000F8B5044643681BB30846F9F707FD074626683146F9F74CFC05464FF07E51F9F703FF20B11D492846F9F7F4FEB3
S38500012C00E0B91C492846F9F7EFFE08BB18492846F9F7FEFE20B918492846F9F7DBFE38B1276005E00846F9F7E3FC2060012363602068FFF7B8FFF9F7DBFCF8BD4FF07C512846F9F729FD3146F9F71EFC2060EFE709492846F9F7D2FE0028D7D04FF07C512846F9F719FD3146F9F70EFC2060DFE70000A040000080BF0000A0C07047000068
S38500012C80F0B4124B5C79DCB1114B1E68114B00224FF0010C03E001321033A24210D0597B0029F8D09968B142F5D8711A5F68B1FBF7F507FB15110029EDD183F80CC0EAE7034A136801331360F0BC7047840000208C000020E48AFF1F0E4B5B79C3B12DE9F0410D4C0025A8460A4F04E0013510347B79AB420ADD637B002BF7D0237B002BF0
S38500012D00F4D02368984784F80C80EFE7BDE8F081704700BF84000020E48AFF1F08B5002205491046FFF7DDFA3A20FFF7DEFA0020FFF7DFFA08BD00BF9438010008B5054A136801331360FFF73FFDFFF73FFCFFF797FF08BD90000020024B1B6819440160704700BF90000020044B1B6800681B1A034883428CBF0020012070479000002014
S38500012D80FEFFFF7F10B500F05FFA094C207000F061FA607000F064FAA07000F067FAE07000F06AFA207100F06DFA607110BD00BFF001002030B1002914BF03220122044B1A70704700290CBF00220222F7E700BF6C0200202AB9002918BF0220024B587070470320FAE700BF6C02002040F6E44303FB00F0104B83FB0023C017C0EBA310E2
S38500012E0042F2981398420ED841F6F42398420ED841F2EC3398420CD840F6E443984294BF0020012000E00420044B987070470320FAE70220F8E700BFD34D62106C0200200C4B5B78DBB2022B0ED0032B0FD0012B02D00023184600E0002007490870074A10700B711371704700230120F5E700230220F2E76C020020F80100200002002028
S38500012E80114B1B78DBB2022B10D0032B15D0012B05D000230D4A93700D4A9370704701220A4B9A7000220A4B9A7070470022074B9A700122064B9A7070470123034A9370034A9370704700BF6C020020F801002000020020124B9B78DBB2012B0BD000220F4BDA700F4B9B78DBB2012B0DD000220C4BDA7070470A4BDB78DBB2012B0CBFBD
S38500012F0000220122064BDA70ECE7064BDB78DBB2012B0CBF00220122024BDA70704700BFF801002000020020044A9378DBB204494B709378DBB2034A537070476C020020F80100200002002000B583B0064B1978012201920023009303460220FDF758FB03B05DF804FB00BFDC85FF1F08B5054A05490220FDF75CFA04490220FDF70AFC70
S38500012F8008BD00BF08020020E885FF1FFC85FF1F10B5094B5C78E4B2084B1B78A34201D0042C00D910BD064B33F81400FFF7CCFF024B1C70F6E700BF000200206F020020A438010008B502460F210248FFF73BF808BD00BFC0F00F4008B5024610210248FFF731F808BD00BFC0F00F4008B5024601210248FFF727F808BD00BFC0F00F4051
S3850001300008B5024600210248FFF71DF808BD00BFC0F00F4010B5134B1B78DBB2022B12D0104B1B78DBB2012B14D00020FFF7CAFF0020FFF7D1FF0B4CE078FFF7D7FF2079FFF7DEFF10BD0120FFF7BCFF0020FFF7C3FFF0E70020FFF7B5FF0120FFF7BCFFE9E700BF0002002010B5FFF78BFE134C20786178003118BF0121003018BF0120C1
S38500013080FFF798FEA07821796279003218BF0122003118BF0121003018BF0120FFF79AFE00F04CF8FFF7A2FEFFF7CAFEFFF73CFFFFF7E6FEFFF70EFF10BD00BFF001002010B5064C21460648FBF700FF4FF0FF33A361B0FA80F0400910BD00BF700200208038010038B504460D4672B60A4601460948FBF763FF034620B162B6B3FA83F0C5
S38500013100400938BD0123C5F30F1221460248FBF7AFFF0346F1E700BF7002002008B50B4672B601460348FBF7E9FF62B6B0FA80F0400908BD7002002070470000014BB3F86C0070478C02002008B50122024B1A71FFF7E0F808BD00BF8400002070B50C4B8400211803EBC1010122CA60094D2E790949CE70EE788E706E784E702D780D70BC
S38500013180204403EBC000153000F0EAF870BD00BF08030020F80100205803002070B50C4B8400211803EBC1010122CA60094D2E790949CE70EE788E706E784E702D780D70204403EBC000153000F0E8F870BD00BF08030020000200205C03002008B550220021054800F0F4F90222044B9A70FFF739FAFFF7C9FA08BD0803002084000020BB
S3850001320008B50C48FAF79CFE08B100BEFEE70A492520FEF708FF0748FAF792FE0023074A01210748FBF79AFA00210846FBF7AAFA08BD00BFB084FF1F5886FF1F940000203885FF1F70470000014B587E704700BF188AFF1F014B93F835007047188AFF1F014B93F851007047188AFF1F014B93F86D007047188AFF1F014B93F88900704717
S38500013280188AFF1F014B93F8A5007047188AFF1F08B50622024B1A70FFF742FB08BD00BF8400002008B50220FFF772FB08BD000008B50322024B5A70FFF77AFB08BD00BF8400002008B5FFF7EDFFFFF7A3FEFFF75FFE08BD704708B5FFF7C6FE08BD08B5FFF7F8FD08BD08B5FFF7ECFF08BD08B5FFF7F0FF08BD08B5FFF7EDFF08BD08B5D1
S38500013300FFF7EDFF08BD000008B50422024B5A71FFF7B4FC08BD00BF8400002008B5FFF76FFFFFF7C5FFFFF7F9FCFFF7B1FFFFF771F9FFF753FFFFF707FF00F0A1F8FFF715FEFFF7E1FFFFF701FBFFF73BF9FFF717FAFFF749FB00F001F9FFF7BDFCF2E7CAB1002303700B7803F0030303704A78920002F01C02134303708A78520102F01B
S38500013380200213430370CA78920102F0400213430370012070476FF015007047CAB1002303700B7803F0030303704A78920002F01C02134303708A78520102F0200213430370CA78920102F0400213430370012070476FF015007047002943D110B5254B5B695BB1122B16D9224B93F8203053BB012221490020FEF788FF10BD1D4C4FF46C
S385000134007A7104F11C00FFF7A7FC012384F820306369122B17D8174A517ED154581C50610A2919D1002182F82010012804D95A1E1049895C0D290BD000210E4AD15401220C4B1A7610BD00210C48FFF785FCCFE70021084B9954F2E7012207490020FEF754FF10BD0B46032902BF0022014B5A61704700BF60030020790300207C03002005
S3850001348038B5242200210F4800F0A2F80E4A0F490020FEF7B9FA044618B1FFF711FE204638BD00220A491046FEF727FF094D012229460020FEF729FF012229460020FEF720FFEAE7600300204C86FF1FBC010020D93301007903002008B5054900200876486181F8200001221931FEF70AFF08BD6003002008B5042202490020FEF78AF9A6
S3850001350008BD00BFB838010000B585B04FF0A53302934FF08050436803934FF40061FFF7E1FD00230193019A0B4B9A4206D81A46019B01330193019B9342F9D908220DEB02014FF08050FFF7E9FD80F00100C0B205B05DF804FB00BF9F86010000B583B0174B93F8203063B9154B1B7E33B115491348F9F729FC60B1FFF7AEFF03B05DF87F
S3850001358004FB1148FFF7F0FB0028EDD0FFF7A4FFF4E701220A4B9A76FFF7B6FFFFF7AAFF00230193019A094B9A4206D81A46019B01330193019B9342F9D9F9F71FFCDBE760030020B03801007C0300203F4B4C0002440346934200D1704703F8011BF9E700B0034000700240000000000000000000000000000000000000000000000000C3
