S0130000626C5F6170705F746573742E7372656384
S113C0000070002011C4000079C4000079C400004D
S113C01079C4000079C4000079C400000000000065
S113C02000000000000000000000000079C40000CF
S113C03079C400000000000079C40000A1D500000C
S113C04079C4000079C4000079C4000079C40000F8
S113C05079C4000079C4000079C4000079C40000E8
S113C06079C4000079C4000079C4000079C40000D8
S113C07079C4000079C4000079C4000079C40000C8
S113C3F079C4000079C4000079C40000FFFFFFFF86
S113C400FFFFFFFFFFFFFFFFFFFFFFFFFE7FFFFFB9
S113C41072B64FF000014FF000024FF000034FF0EE
S113C42000044FF000054FF000064FF00007B84637
S113C430B946BA46BB46BC460A490B4A521A013AA7
S113C44005DD0020042308601944043AFBDA074898
S113C4508546074880470748804762B601F0A8F838
S113C460FEE700000080FF1F007000200070002025
S113C4707DC400009DC40000FFF7FEBF054B064AC3
S113C4805A605A6842F220121A604FF6FF729A609C
S113C490704700BF0020054020C528D9254B264AF7
S113C4A09A4208D013462348244A13F8011B02F881
S113C4B0011B9842F9D1224B224A9A4208D01346D2
S113C4C01F48214A13F8011B02F8011B8342F9D1CA
S113C4D01E4B1F4A9A4206D0134600211B4A03F8FA
S113C4E0011B9342FBD11B4B1B4A9A4208D01346B3
S113C4F018481A4A13F8011B02F8011B8342F9D1A8
S113C500174B184A9A4211D010B4174CA40808D0FB
S113C5101946002351F8040B42F8040B0133A342DB
S113C520F8D1124B0F4A1A6010BC70470F4B0C4ADB
S113C5301A6070472CDD0000E8D700000084FF1F5C
S113C5402CDD00002CDD00004489FF1F300000209A
S113C550000000202CDD00002CDD00000000002085
S113C56000C000000080FF1F0004000008ED00E090
S113C570074B5B69DBB2042B06D0802B06D0012B62
S113C5800CBF01200420704702207047032070472D
S113C59000E00740044BD3F8003113F0807F1ABF4A
S113C5A0024B18680020704700400640200000201D
S113C5B010B584B00B46002938D0444AD2F8002183
S113C5C012F0007F7DD1414AD2F8001121F400011C
S113C5D0C2F800114FF08061C2F8001100213C4AFA
S113C5E01160002870D05A7A120202F4E062197ABB
S113C5F001F007010A433548C0F80421DA79120131
S113C60002F030029979C90001F008010A4359790E
S113C610890001F004010A43C0F808211A79012AAB
S113C6202FD0CAB1022A38D000BEFEE700238DF80D
S113C63004308DF80C3001228DF808208DF8092083
S113C6408DF805208DF8063002238DF8073004ABF1
S113C650204A43F8102DB0E71A7B002A14BF4FF488
S113C6600002002242F001021849C1F800211A68B0
S113C670174B1A60184CFFF78DFFE8B9D4B1013C91
S113C680F9E71A7B002A14BF4FF40002002242F09B
S113C69001120E49C1F80021E9E71A7B002A14BFF0
S113C6A04FF403024FF4403242F001020749C1F84B
S113C6B00021DCE7032005E0002C14BF0020032048
S113C6C000E0022004B010BD0020FBE7004006405B
S113C6D02000002000127A0088E73000084BD3F8CD
S113C6E0003213F0807F09D0054BD3F8083203F0F1
S113C6F00103002B034808BF002070470020704747
S113C7000040064000127A0010B582B00B460029A2
S113C71038D02D4AD2F8002212F0007F4FD12A4A95
S113C720D2F8001221F40001C2F800120021C2F86C
S113C7300012002846D09A78120202F4E062597876
S113C74001F007010A432049C1F804221A7802F0D3
S113C7500102C1F8082259799A791B79002B14BF78
S113C76003230123002914BF042100210B43002AC1
S113C77014BF4FF4000200221343134AC2F80032DC
S113C780642410E000238DF8043001228DF8052084
S113C7908DF806308DF801208DF8022002AB03F8E5
S113C7A0082DB6E7013CFFF799FF18B9002CF9D121
S113C7B0032005E0002C14BF0020032000E0022029
S113C7C002B010BD0020FBE700400640054BD3F843
S113C7D0003313F0807F1DBF024BD3F808330248A7
S113C7E00020704700400640006CDC0210B582B0A7
S113C7F00B46002932D0294AD2F8002312F0007FD8
S113C80047D1264AD2F8001321F40001C2F80013DC
S113C8104FF08061C2F8001300283DD09A781202CC
S113C82002F4E062597801F007010A431B49C1F898
S113C83004231A7802F00302C1F808239A795B7979
S113C840002B14BF01230923002A14BF4FF4000254
S113C85000221343C1F8003364240EE001238DF851
S113C860053000228DF806208DF801308DF8023055
S113C87002AB03F8082DBEE7013CFFF7A7FF18B988
S113C880002CF9D1032005E0002C14BF0020032064
S113C89000E0022002B010BD0020FBE7004006408B
S113C8A008B50F4BD3F8003613F0807F02D1002374
S113C8B0184608BDFFF76EFE03460028F8D0084965
S113C8C0D1F80826C2F302220132B0FBF2F3D1F808
S113C8D00826C2F30442103203FB02F35B08E7E7C5
S113C8E00040064010B584B00C4689B900238DF889
S113C8F004308DF80B3001228DF808208DF80920C2
S113C9008DF8053007228DF806208DF8073001AC2C
S113C9103D4BD3F8003613F0007F71D13A4BD3F876
S113C920002622F40002C3F800264FF08062C3F808
S113C9300026002866D0FFF72DFE034608B900BE86
S113C940FEE760780130B3FBF0F0A0F5F400A0F549
S113C95090502E4B984201D900BEFEE763791B022A
S113C96003F4E063227902F0070213432649C1F875
S113C970043663781B0203F4E063A278120402F421
S113C980F8121343C1F808362378012B18D01BB1D1
S113C990022B21D000BEFEE7E379002B14BF4FF435
S113C9A00003002343F00103174AC2F800364FF492
S113C9B07A74FFF775FFF0B9DCB9032004B010BD39
S113C9C0E379002B14BF4FF40003002343F0011359
S113C9D00D4AC2F80036EAE7E379002B14BF4FF49E
S113C9E003034FF4403343F00103074AC2F800360F
S113C9F0DDE7013CDDE7002C14BF00200320DDE768
S113CA000220DBE70020D9E70040064000366E0133
S113CA102DE9F84391F802904E780D7807460030DE
S113CA2018BF012008B900BEFEE780460C46CB784B
S113CA30022B50D003D8012B08D0002008E0032B90
S113CA404CD0062BF9D1FFF72BFF01E0FFF7A2FD35
S113CA5009F1010206FB022605FB02250309022F48
S113CA603FD0032F73D0012F40F0B080E1780C2029
S113CA7000FB01F0644F3858000902FB00F29342B6
S113CA8000F2A6800C2202FB01725268120906FB16
S113CA9002F6B34200F29F800C2202FB01729268FC
S113CAA0120905FB02F5AB4200F29880A3781B043F
S113CAB003F47023090601F070610B43227802F03D
S113CAC00F02134362781201D2B213434F4A5361E7
S113CAD00020BDE8F883FFF701FEB9E7FFF776FE13
S113CAE0B6E7E178022901D000BEFEE70C2000FB86
S113CAF001F0474F3858000902FB00F2934270D806
S113CB000C2202FB01725268120906FB02F6B342C0
S113CB106AD80C2202FB01729268120905FB02F525
S113CB20AB4264D8A3781B0403F47023090601F014
S113CB3070610B43227802F00F02134362781201F2
S113CB40D2B21343314A93610020BDE8F883E178FF
S113CB50032905D0062914BF4FF000084FF001083F
S113CB60B8F1000F01D100BEFEE70C2000FB01F07C
S113CB70284F3858000902FB00F293423AD80C229D
S113CB8002FB01725268120906FB02F6B34234D862
S113CB900C2202FB01729268120905FB02F5AB42FA
S113CBA02ED8A3781B0403F47023090601F07061E6
S113CBB00B43227802F00F02134362781201D2B2BF
S113CBC01343124AD3610020BDE8F88300BEFEE798
S113CBD00120BDE8F8830120BDE8F8830120BDE809
S113CBE0F8830120BDE8F8830120BDE8F883012023
S113CBF0BDE8F8830120BDE8F8830120BDE8F8838F
S113CC000120BDE8F88300BF38D70000004006408B
S113CC108CD70000E4D6000008B900BEFEE710B5CA
S113CC200446C378FF2B01D100BEFEE7FFF7A0FC4A
S113CC30042801D100BEFEE72146FFF7E9FE0346C2
S113CC4058B9E4780A220848013A0169C1F303613A
S113CC508C4204D0002AF7D10323184610BD002AC1
S113CC6008BF0323F9E700BF00400640F0B5A5B0B4
S113CC700446FFF77DFC012801D000BEFEE72CB17D
S113CC802646002C40F0718100BEFEE701238DF89A
S113CC900B3000228DF80C208DF80D308DF80E200D
S113CCA08DF808308DF809308DF80A308DF816307B
S113CCB08DF814308DF815208DF80F208DF8103074
S113CCC08DF811308DF838300D928DF82530BA4931
S113CCD006918DF81C208DF824208DF81D308DF8D8
S113CCE01E2002208DF81F008DF820308DF8213091
S113CCF08DF830308DF828208DF82F208DF82920DC
S113CD000C218DF82A108DF82B208DF82C308DF8FD
S113CD102D308DF83D3003218DF83C108DF84B30CB
S113CD208DF841108DF840208DF83F308DF83E305D
S113CD308DF845008DF844308DF843208DF842106D
S113CD4006208DF849008DF848208DF847308DF87D
S113CD5046109A492291202121918DF84C308DF86A
S113CD604D208DF84E208DF84F208DF850308DF8E1
S113CD7054308DF853308DF852208DF851208DF8B1
S113CD8078308DF879308DF87A308DF87B308DF8E5
S113CD907C308DF87D308DF883308DF858301792C3
S113CDA0189219921A921B921C921D928DF87E3041
S113CDB08DF87F308DF880208DF881208DF88220C9
S113CDC08DF88C308DF88D308DF88E2002AE34467F
S113CDD07B4B1B69C3F30363032B1CD0FFF7F6FCE7
S113CDE038B900210120FFF701FD0546002840F075
S113CDF0B98003238DF8073000228DF80620012224
S113CE008DF8052024A800F88C3DFFF705FF0546A2
S113CE10002840F0A7803146E078FFF775FC05460E
S113CE2068B904F11001607FFFF7C2FB054630B911
S113CE3004F1200194F82800FFF754FD0546FFF79C
S113CE4097FB022800F09980032800F099800128BC
S113CE5040F0998004F13606002D53D1F378032B6A
S113CE6040F0938094F82830002B00F0F3810623DF
S113CE708DF8073002238DF8063001238DF8053034
S113CE8024A800F88C3DFFF7C7FE0546637F7BB1FD
S113CE90012820D101238DF8073000228DF80620C7
S113CEA08DF8053024A800F88C3DFFF7B5FE054643
S113CEB0E37883B1012D0ED102238DF807300023CE
S113CEC08DF806308DF8053024A8012300F88C3D38
S113CED0FFF7A2FE0546ADB9E11DA07BFFF786FC76
S113CEE0054678B9F3788DF80730B3788DF80630B5
S113CEF073788DF80530337824A800F88C3DFFF75B
S113CF008BFE054675BB00222E4B1A6094F8303018
S113CF1013B1E26A2B4B1A6094F8353053B12849A7
S113CF200A6A22F0706294F834301B0603F07063CE
S113CF3013430B6294F84330D3B104F1360101205A
S113CF40FFF766FD054668B904F13A010220FFF7D0
S113CF505FFD054630B904F13E010320FFF758FD9B
S113CF60054628B1284625B0F0BD002C7FF430AF2B
S113CF7014F1440F28D100BEFEE704F13A066BE732
S113CF8004F13E0668E700BEFEE78DF80730B3788B
S113CF908DF8063073788DF80530337824A800F8BE
S113CFA08C3DFFF739FE05460028ABD1E11DA07B7F
S113CFB0FFF71CFC0546A5E700127A000084FF1F5A
S113CFC0004006400000002094F84430E3B194F897
S113CFD0455094F8463094F84720A349486820F413
S113CFE000604860496821F47F61002D14BF4FF44C
S113CFF0006000201B01DBB2120202F4E062134362
S113D0000B430343984A536094F84830DBB194F8D7
S113D0104A3094F849209449096921F03F0194F871
S113D0204C00014394F84B00002814BF0220002058
S113D0309B0003F00C030B43120102F03002134374
S113D0400343894A136194F87030002B37D0864B20
S113D050196C21F0010194F871200A431A641B6CC5
S113D06023F0020394F87220002A14BF0222002243
S113D07013437D4A1364136C23F0040394F8732060
S113D080002A14BF042200221343774A1364136C4A
S113D09023F0080394F87420002A14BF0822002205
S113D0A01343714A1364136C23F0100394F875202E
S113D0B0002A14BF1022002213436B4A136494F80D
S113D0C05030002B38D0694B626D1A60A26D5A60E3
S113D0D0E26D9A6004F160050121634855F8043B50
S113D0E0C2684E1EF6B2012E12D04EB1022E16D0D8
S113D0F0032E1BD0C26003291ED80131C9B2EDE74B
S113D10022F040721B0603F040731343C360F4E73C
S113D11022F040629B0603F040631343F6E722F0DB
S113D12040521B0703F040531343EFE722F0404201
S113D13042EA83734C4AD36094F87630EBB14A4A9E
S113D140936E00209066516821F4805194F87830F1
S113D1501B0303F480530B435360906694F87730B9
S113D1605BB194F879305B0003F00E0394F87A20F5
S113D17042F0805213433C4A936604F17C0314F159
S113D1807C0F01D100BEFEE7002B38D0D4F88030EC
S113D190002B34D0E36F93B300223548354D02EBB6
S113D1A08201D4F880305B5C30F813309B0003F1CB
S113D1B0804303F5CA231E6826F080461E60D4F817
S113D1C080305F185E5CBB781B0603F0E063F9787F
S113D1D0C90001F008010B43397901F007010B4341
S113D1E07978002914BF4FF0804100210B4330F8B7
S113D1F0161045F821300132E36F9A42CFD314F16F
S113D200840F01D100BEFEE794F8843003B31A49B9
S113D2108B7803F07F0394F8852082F0010243EABF
S113D220C213DBB28B7094F98630002BBCBF203361
S113D2305BB2DAB2202A01D900BEFEE70E490A79B0
S113D24003F01F0302F0E00213430B71002589E68B
S113D250002587E6637F002B7FF41CAEE378002B68
S113D2607FF42AAE012536E6008004400400002045
S113D27044D600000050064000D0074008B900BE64
S113D280FEE710B404460AB900BEFEE70448046091
S113D2900171826003734373002010BC704700BFA8
S113D2A0100000203B4B1B79834201D800BEFEE7EF
S113D2B0F0B583B00E4605468DF804008DF80510D0
S113D2C000F078F8334B1C7B5C7301238DF8063037
S113D2D0002C4AD000242F4F04E00134E4B23B7BFD
S113D2E0A34242D9BB6853F82430002BF5D01A79F5
S113D2F0022AF2D01A68996801A890470028ECD055
S113D3007C73002EE9D140F2031500238DF806301A
S113D310A400204E24E00134E4B23B7BA34212D9A2
S113D320BB6853F82430002BF5D01A79012AF2D0C7
S113D3301A68996801A890470028ECD07C73002EE5
S113D340E9D14FF4827500F027F8284603B0F0BD08
S113D3501A68996801A89047043C14F1040FF2D0AC
S113D360B3681B59002BF3D1F6E70A4F3B6853F817
S113D3702500FFF77BFC7D7105460028C5D10223FB
S113D3808DF80630034B1B7B002BDCD00024014FAF
S113D390C6E700BF10000020054B1B68002B04DD0E
S113D3A0013B034A1360002B00DD704762B6FCE7C3
S113D3B02400002072B6024A1368013313607047D8
S113D3C02400002060B170B506460C4600252046B6
S113D3D000F04AF801351834AE42F8D1002070BD8F
S113D3E00020704710B4036801248C4023EA04032E
S113D3F08A401A43026010BC70470000184B9842E0
S113D4001ED10D2913D004D859B101290CD0FF2005
S113D41070470F2911D00DD31029F8D102F00D0057
S113D420704742F00100704742F00200704742F03A
S113D4300400704742F00800704702F00E00704785
S113D440084B98420AD119B1012904D0FF20704732
S113D45002F00B00704702F007007047FF2070478E
S113D46000A0044000B0044038B504460068031C22
S113D47018BF01230BB900BEFEE71A46E37A012B5D
S113D48002D032B900BEFEE72269003218BF012281
S113D490F7E761681F2901D900BEFEE750F8212093
S113D4A0257A012D58D01DB1022D5AD000BEFEE7B9
S113D4B022F00202657A2D0105F0100522F05002D7
S113D4C02A43A57AAD0105F040052A4322F4E0651C
S113D4D0082B12D1314B5A6802F00F02FFF78EFF6E
S113D4E0FF2841D02D4A536823F00F03536051683D
S113D4F000F00F030B43536000231B0203F4E063AB
S113D5002B43227BD20392B223F478231343627B0E
S113D510120402F470221343A27B0AB143F0807315
S113D5202268616842F821302168D1F8C03060680F
S113D5300122824023EA0202E37B83401343C1F8C1
S113D540C030E37A012B18D121694B69227D6AB17D
S113D550012A13D000BEFEE722F0010242F00202CB
S113D560A8E742F00302A5E70023C6E761680122A9
S113D5708A4023EA02032269536138BD60680122AC
S113D5808240134305460A680120A84022EA0000AD
S113D590627DAA4002430A60EDE700BF00800440B8
S113D5A0024A136801331360704700BF280000204B
S113D5B070B582B01D48FFF759FB08B100BEFEE705
S113D5C01B492520FFF7FEFE1848FFF74FFB0023F9
S113D5D0184A01211848FFF751FE00210846FFF7B9
S113D5E061FE164E0025164C012208213046FFF735
S113D5F0F9FE0095009BA34206D800BF009B0133AF
S113D6000093009BA342F8D92A4608213046FFF72D
S113D610E9FE0195019BA342E6D800BF019B0133BB
S113D6200193019BA342F8D9DEE700BFA084FF1F4A
S113D630CC85FF1F2C0000202885FF1F00F10F4020
S113D640BFC62D0000000000000000000000000024
S113D65000000000000000000000000000000000C6
S113D66000000000000000000000000000000000B6
S113D67000000000000000000000000000000000A6
S113D6800000000000000000000000000000000096
S113D6900000000000007300320021006100490016
S113D6A04A004B004C004D003D00000024002500C2
S113D6B02B00360031000000200000003800390043
S113D6C03A00260000003B0027005A00660037009D
S113D6D02C002D002E0040006A006B006C0000003E
S113D6E00000000000000000000000000000000036
S113D6F000FCAC06007E5603003FAB0100FCAC0608
S113D700007E5603003FAB0100FCAC06007E5603CE
S113D710003FAB010000000000000000000000001A
S113D72000000000000000000000000000FCAC0647
S113D730007E5603003FAB01000000000000000023
S113D7400000000000B4C404006CDC02B0F39601D5
S113D75000B4C404006CDC02B0F3960100B4C40449
S113D760006CDC02B0F39601000000000000000031
S113D77000000000000000000000000000000000A5
S113D78000B4C404005A6202B0F396010000000021
S113D790000000000000000000093D0000093D00F9
S113D7A040420F0000093D0000093D0040420F00C7
S113D7B000093D0000093D0040420F000000000048
S113D7C00000000000000000000000000000000055
S113D7D00000000000093D0000093D0040420F0028
S10BD7E0F8B500BFF8B500BF65
S113D7E84101020000420102000029010000002A50
S113D7F8010000002B010000002C0100000034018E
S113D8080000003501000000360100000043010259
S113D81800003A010000003C010200003D01020042
S113D828003E010200003F01020000440102000022
S113D83845010200004601020000470102000048B9
S113D8480102000049010200004A010200004B01E4
S113D8580200004C010200003701000000380100FA
S113D86800002D010000002E010000002F0100001F
S113D8780030010000003101000000320100000006
S113D8880101010101010000010100000100010082
S113D89800127A00000100030101000000010000E9
S113D8A800000C000203000001000000000000005A
S113D8B8000000000301010000030300010203014A
S113D8C8000600010101000001010001010000003F
S113D8D8000000000000000000000000000000003C
S113D8E8000000000000000000000000000000002C
S113D8F801010101010101010000000020000000F4
S113D9082C85FF1F01010000A084FF1F41010200B4
S113D9180042010200004601020000470102000023
S113D92848010200004A010200004B010200004CB9
S113D93801020000440102000045010200004901FF
S113D9480200003C010200003D010200003E010209
S113D95800003F0102000043010200002901000009
S113D968002A010000002B010000002C0100000027
S113D9783A010000003701000000380100000032BD
S113D98801000000340100000035010000003601E8
S113D9980000002D010000002E010000002F0100EE
S113D9A80000300100000031010000000090044034
S113D9B801000000000000010000000000F00F401A
S113D9C8000000000090044002000000000000066F
S113D9D80000000000000000000000000090044067
S113D9E80300000000000006000000000000000022
S113D9F80000000000A00440000000000000000136
S113DA080000000040F00F400000000000A00440A7
S113DA1801000000000000010000000040F00F4079
S113DA280000000000A004400C00000000000000FA
S113DA3800000000000000000000000000A00440F6
S113DA480D000000000000010000000040F00F403D
S113DA580000000000A004400200000000000001D3
S113DA680000000040F00F400000000000A0044047
S113DA7803000000000000010000000040F00F4017
S113DA880000000000A004400400000000000001A1
S113DA980000000040F00F400101000000A0044015
S113DAA805000000000000010000000040F00F40E5
S113DAB80101000000B00440000000000000000163
S113DAC80000000080F00F400100000000B0044096
S113DAD801000000000000010000000080F00F4079
S113DAE80100000000B004400E0000000000000027
S113DAF800000000000000000000000000B0044026
S113DB080F000000000000000000000000000000FA
S113DB180000000000B004401000000000000003F2
S113DB2800000000000000000000000000B00440F5
S113DB3811000000000000030000000000000000C5
S113DB480000000000B004400200000000000003D0
S113DB5800000000000000000000000000B00440C5
S113DB6803000000000000030000000000000000A3
S113DB780000000000B0044009000000000000019B
S113DB880000000080F00F400000000000C00440C6
S113DB98000000000000000100000000C0F00F4079
S113DBA80100000000C00440010000000000000162
S113DBB800000000C0F00F400100000000C0044055
S113DBC80F0000000000000100000000C0F00F403A
S113DBD80100000000C00440100000000000000123
S113DBE800000000C0F00F400100000000C0044025
S113DBF8020000000000000100000000C0F00F4017
S113DC080000000000C00440030000000000000100
S113DC1800000000C0F00F400000000000C00440F5
S113DC28040000000000000100000000C0F00F40E4
S113DC380000000000C004400500000000000001CE
S113DC4800000000C0F00F400100000000C00440C4
S113DC5806000000000000020000000000000000B0
S113DC680000000000C0044007000000000000029B
S113DC7800000000000000000000000000D0044084
S113DC880A0000000000000400000000000000007A
S113DC980000000000D004400B0000000000000455
S113DCA800000000000000000000000000D0044054
S113DCB802000000000000010000000000F10F4015
S113DCC80000000000D0044004000000000000042C
S113DCD800000000000000000000000000D0044024
S113DCE8050000000000000400000000000000001F
S113DCF80000000000D004400600000000000001FD
S113DD080000000000F10F400000000000D00440B3
S113DD1808000000000000010000000000F10F40AE
S107DD2801010000F1
S903C41127
